:100000000C9407020C948F100C9468100C944110FF
:100010000C941A100C942F020C942F020C94F30FD2
:100020000C942F020C942F020C94080D0C94770D55
:100030000C942F020C942F020C942F020C942F027C
:100040000C942F020C942F020C942F020C942F026C
:100050000C942F020C942F020C942F020C94A90FD5
:100060000C942F020C942F020C942F020C942F024C
:100070000C942F020C942F020C942F020C942F023C
:100080000C942F020C942F020C942F020C942F022C
:100090000C942F020C942F020C942F020C942F021C
:1000A0000C942F020C942F020C942F0207634236FB
:1000B000B79BD8A71A39685618AEBAAB558C1D3CF9
:1000C000B7CC5763BD6DEDFD753EF6177231BF00BD
:1000D0000000803F08000000BE922449123EABAAF7
:1000E000AA2ABECDCCCC4C3E00000080BEABAAAA52
:1000F000AA3E00000000BF000000803F000000009A
:1001000000084178D3BB4387D1133D190E3CC3BDD2
:100110004282AD2B3E68EC8276BED98FE1A93E4C7F
:1001200080EFFFBE01C4FF7F3F00000000000040E1
:100130007A10F35A00A0724E18090010A5D4E800F6
:1001400000E87648170000E40B54020000CA9A3B0E
:10015000000000E1F5050000809698000000404294
:100160000F000000A0860100000010270000000022
:10017000E803000000006400000000000A00000026
:1001800000000100000000002C76D888DC674F08D2
:1001900023DFC1DFAE59E1B1B796E5E3E453C63AD8
:1001A000E651997696E8E6C28426EB898C9B62ED4F
:1001B000407C6FFCEFBC9C9F40F2BAA56FA5F49009
:1001C000055A2AF75C936B6CF9676DC11BFCE0E480
:1001D0000D47FEF520E6B500D0ED902E03009435D6
:1001E00077050080841E080000204E0A000000C829
:1001F0000C333333330F986E12831141EF8D21147A
:10020000893BE65516CFFEE6DB18D1844B381BF749
:100210007C1D901DA4BBE424203284725E228100E8
:10022000C9F124ECA1E53D2700000000000000001A
:100230002A2B280000000000000000000000000041
:1002400000000000000000002C9EB4A0A1A2A43475
:10025000A6A7A5AE362D3738271E1F20212223241E
:100260002526B333B62EB7B89F8485868788898ABA
:100270008B8C8D8E8F909192939495969798999A56
:100280009B9C9D2F3130A3AD350405060708090A54
:100290000B0C0D0E0F101112131415161718191A36
:1002A0001B1C1DAFB1B0B5000000000023002600EC
:1002B00029002C002F000000000200090F0000039D
:1002C0000401000C0000000000000000000000001D
:1002D0000000000000080B000202020000090400F8
:1002E00000010202000005240010010524010101A3
:1002F00004240206052406000107058103100040BE
:1003000009040100020A0000000705020240000083
:10031000070583024000000403090412010002EFF4
:100320000201404123368000010102030141726451
:1003300075696E6F204C4C430041726475696E6F35
:10034000204C656F6E6172646F0000000000240035
:1003500027002A002D00300005010902A101090132
:10036000A10085010509190129031500250195033F
:100370007501810295017505810305010930093177
:1003800009381581257F750895038106C0C00501D0
:100390000906A1018502050719E029E715002501D5
:1003A0007501950881029501750881039506750808
:1003B000150025730507190029738100C004080280
:1003C00001104080401020408040800802040180DD
:1003D000402010020110801020404020000000004A
:1003E000250028002B002E0031000404040404031F
:1003F00004050202020204030202020206060606C5
:10040000060604040202020404001611CE1C112484
:100410001FBECFEFDAE0DEBFCDBF24E0AEEEB2E02C
:1004200001C01D92AD3BB207E1F712E0A0E0B1E0E0
:10043000E0E6FBE402C005900D92AE3EB107D9F7AD
:1004400012E0C6E0D2E004C02197FE010E94A4237E
:10045000C530D107C9F70E94C1120C94A3250C9492
:1004600000002091AB04222341F0629FB0011124CF
:10047000672F249FA0011124452FE091B104209102
:10048000AC043091AD045091AE04E5131AC0FC01E8
:10049000EE0FFF1F8E0F9F1F820F931FE091AE0480
:1004A000E80FF92FF11D6083E091AF04E80FF92FF9
:1004B000F11D40832091B004820F911DFC01108238
:1004C0000895880F991F880F991F820F931FE80FB7
:1004D000F92FF11D1082E2CFFC0180917B0388236C
:1004E00011F13FB7F89482E08093E9002091F20087
:1004F000822F90E01816190614F481E090E088230A
:1005000039F0289844E640937A034091F100408303
:10051000222339F02091F200211103C02BE6209311
:10052000E8003FBF08958FEF9FEF0895E0912B0300
:10053000F0912C0381E08083089540912403509131
:100540002503209122033091230342175307B4F46B
:100550009091E8009570E1F39091E80092FD19C048
:100560008093F100809124039091250301968F736D
:100570009927892B19F48EEF8093E800809124034A
:10058000909125030196909325038093240381E0A5
:10059000089580E00895DF92EF92FF920F931F93EA
:1005A000CF93DF93D82E8A01EB017B01E40EF51E79
:1005B000CE15DF0559F0D7FE12C0FE0184910E94CE
:1005C0009D0221968111F4CF0FEF1FEFC801DF913B
:1005D000CF911F910F91FF90EF90DF900895888148
:1005E000EECF2FB7F89487708093E9009091E800E0
:1005F000892F807295FF04C09091F20080E4891BDE
:100600002FBF0895615030F02091F100FC0120834C
:100610000196F8CF289884E680937A030895809114
:100620001A0381110DC082E08093160384E0809349
:100630001703109219031092180381E080931A0394
:1006400086E193E008950F931F93CF93DF931F925A
:10065000CDB7DEB782E0898342E450E065ED72E019
:1006600080E80E94CB020E940F03DC0112960D91DC
:100670001C910115110589F0D801ED91FC910280C2
:10068000F381E02DBE016F5F7F4FC801099597FD93
:1006900004C0F80100851185ECCF89810F90DF91AE
:1006A000CF911F910F910895CF93DF931F92CDB7F4
:1006B000DEB76983DC01ED91FC910280F381E02DCE
:1006C00041E050E0BE016F5F7F4F09950F90DF91D1
:1006D000CF91089583E08093E9008091F200882310
:1006E00019F08AE38093E800089583E00E94F10204
:1006F00090E00895CF93DF931F92CDB7DEB7FC0152
:100700008485958597FD08C02FEF3FEF35872487B7
:100710000F90DF91CF910895CE0101960E946C0257
:10072000019719F4898190E0F3CF8FEF9FEFF0CF1D
:100730000F931F93CF93DF931F92CDB7DEB78C013A
:10074000FC018485958597FF0BC0CE0101960E9420
:100750006C02019771F4898190E0F8019587848794
:10076000F801848595850F90DF91CF911F910F91AE
:1007700008958FEF9FEFF1CFFC018485958597FD5C
:100780000BC09FB7F89482E08093E9008091F2005B
:100790009FBF90E0019608959FB7F89482E0809300
:1007A000E9008091F2009FBF90E0089581508F3062
:1007B00008F047C0E82FF0E0E052FC4F0C94A4236F
:1007C000FD030104EF03F503F903210421042104CF
:1007D00004040A040E041204180421041C04809169
:1007E00080008F77809380000895809180008F7DB6
:1007F000F9CF80918000877FF5CF84B58F7784BD56
:10080000089584B58F7DFBCF809190008F77809382
:1008100090000895809190008F7DF9CF8091900095
:10082000877FF5CF8091C0008F778093C0000895B7
:100830008091C0008F7DF9CF8091C200877F809327
:10084000C2000895CF93DF93282F30E0F901EA54D6
:10085000FD4F8491F901E354FC4FD491F901E65125
:10086000FC4FC491CC23A1F081110E94D603EC2F40
:10087000F0E0EE0FFF1FE855FD4FA591B491EC910C
:10088000ED2381E090E009F480E0DF91CF910895BD
:1008900080E090E0FACF1F93CF93DF93282F30E0D2
:1008A000F901EA54FD4F8491F901E354FC4FD491CE
:1008B000F901E651FC4FC491CC23A9F0162F811108
:1008C0000E94D603EC2FF0E0EE0FFF1FE452FC4F26
:1008D000A591B4918FB7F894EC91111108C0D095FF
:1008E000DE23DC938FBFDF91CF911F910895DE2B24
:1008F000F8CFCF93DF9390E0FC01E354FC4F2491B9
:1009000086519C4FFC0184918823D1F090E0880FA0
:10091000991FFC01E65BFC4FA591B491FC01E452E8
:10092000FC4FC591D49161110EC09FB7F8948C9182
:10093000E22FE0958E238C932881E223E8839FBFEA
:10094000DF91CF9108958FB7F894EC91E22BEC935F
:100950008FBFF6CF3FB7F8948091120390911303A5
:10096000A0911403B091150326B5A89B05C02F3F95
:1009700019F00196A11DB11D3FBFBA2FA92F982FC5
:100980008827BC01CD01620F711D811D911D42E0C0
:10099000660F771F881F991F4A95D1F708958F9288
:1009A0009F92AF92BF92CF92DF92EF92FF924B0154
:1009B0005C010E94AA046B017C010E94AA046C19CC
:1009C0007D098E099F09683E734081059105A8F352
:1009D00021E0821A9108A108B10888EEC80E83E0D0
:1009E000D81EE11CF11C81149104A104B10429F763
:1009F000FF90EF90DF90CF90BF90AF909F908F903F
:100A000008957F928F929F92AF92BF92CF92DF9282
:100A1000EF92FF920F931F93CF93DF93C82E8B011A
:100A20007A0180917B03811110C08FEF9FEFDF91DE
:100A3000CF911F910F91FF90EF90DF90CF90BF90DB
:100A4000AF909F908F907F9008958091280380FFB2
:100A500005C08091E00082608093E000CE2DDF2D04
:100A6000D12C8AEFB82E8C2D8770982E8C2D807209
:100A7000882E8C2D8074782E9AE3A92E209719F455
:100A8000DD2009F452C08C2D0E94F10281110AC0B0
:100A9000BA94BB2051F261E070E080E090E00E94E7
:100AA000CF04ECCF8C171D0611F00CF08C2F9FB7E4
:100AB000F8949092E9002091E80025FD02C09FBFC4
:100AC000DDCF282F30E0C21BD30B882029F08150C6
:100AD000A0F01092F100FBCFF801C7FC0AC08150D2
:100AE00050F041914093F100FACF44914093F100CE
:100AF00031968150D0F7020F131FDD2021F0A09214
:100B0000E800D12CDCCF8091E80085FD07C0A092E1
:100B1000E800DD24D394209791F2F3CF209779F663
:100B2000772069F2A092E800CACF5D9884E68093AE
:100B30002703C7017CCFCF93DF93EC0180911C0189
:100B4000882331F083E00E9401051816190634F05D
:100B500081E090E09B838A8380E090E0DF91CF91F9
:100B60000895FC0144815581608171818DE793E096
:100B70000C949B052FB7F89460910E0370910F03AE
:100B800080911003909111032FBF08950F931F932D
:100B90000E94BA0560938503709386038093870350
:100BA000909388038DE793E00E947A0397FF1DC01E
:100BB0000E94BA0500918503109186032091870356
:100BC00030918803601B710B820B930B00918103A2
:100BD0001091820320918303309184036017710781
:100BE00082079307F8F28FEF9FEF1F910F910895FF
:100BF0000895FC01E61BF70B681779071CF0FB0151
:100C0000E81BF90B9C01241B350B481759071CF0F6
:100C10009A01281B390BDA01A61BB70B641775075D
:100C20001CF0DB01A41BB50B2E173F075CF0AE17C1
:100C3000BF072CF0860F971F959587950895E217AB
:100C4000F3072CF0840F951FA217B307ACF7640FBE
:100C5000751FCB01F1CF0CB405FC0DC09EBD00008B
:100C60000DB407FEFDCF9EB58EBD00000DB407FE8E
:100C7000FDCF8EB508958EBD00000DB407FEFDCFEB
:100C80008EB59EBD00000DB407FEFDCF9EB5089544
:100C90000895DC01FB0112962C91129784819581B5
:100CA0002817190641F491818081813A31F49D7FA2
:100CB00081E0913009F080E008958132E1F79B30C6
:100CC00029F482811F968C9381E008959A3099F7D8
:100CD000828150968C93F8CFAF92BF92CF92DF92E1
:100CE000EF92FF920F931F93CF93DF931F92CDB795
:100CF000DEB77C0169836A01590141E050E0BE0121
:100D00006F5F7F4FFC0183810E9401058C0197FD7D
:100D10000BC0F7018381A501B60180640E94010523
:100D2000080F191F97FD8C01C8010F90DF91CF911B
:100D30001F910F91FF90EF90DF90CF90BF90AF90F9
:100D40000895DC01FB0188E4808389E4818384E4E5
:100D500082831D969C911D979F709F5B93831D9628
:100D60008D919C9124E0969587952A95E1F78F7057
:100D70008F5B848385E00895EF92FF920F931F931A
:100D8000CF93DF93FB012081213871F5238122323B
:100D900059F5DC0112964C912481358142171306D6
:100DA00019F5EC010B851C85F12CE12C01151105C1
:100DB00089F0F801448155816281738180E80E9445
:100DC000CB028F3F980749F0E80EF91ED8010D912C
:100DD0001C91ECCF81E08F87C701DF91CF911F91EC
:100DE0000F91FF90EF90089590E080E0F6CFCF93C1
:100DF000DF93CDB7DEB769970FB6F894DEBF0FBEAD
:100E0000CDBFFC01DB018C918F5F8C939E012D5F28
:100E10003F4F8DE0D9011D928A95E9F729E029839A
:100E200084E08A8391E09D8383E08E832A8721E298
:100E30002B879C879D879F8722E2288B27E02B8B1F
:100E400025E02C8B8E8B20E430E0388F2F8B998F10
:100E500082818B8395858685998B8A8B8381806837
:100E60008D8B49E150E0BE016F5F7F4F80E00E94B3
:100E7000CB0269960FB6F894DEBF0FBECDBFDF91EF
:100E8000CF910895CF93DF938091FF02811167C0C6
:100E900081E08093F2028093F30228EF32E03093F6
:100EA000F5022093F4021092F7021092F60228E362
:100EB00031E03093EF022093EE021092FA0210928A
:100EC000F9021092FC021092FB028093FD028093C3
:100ED000FE0281EC8093F8020E940F03FC018181E5
:100EE0009091F202482F490F5527551F4830510560
:100EF0009CF5A281B381109709F52EEE32E0338381
:100F0000228320812093F0028093F1028091F302EA
:100F1000820F80832091F402A22FB091F5028A2FD4
:100F2000821B8917C8F481813D91C82FD0E0C05041
:100F3000DF4F38838F5F8183F2CFD90118962D91CF
:100F40003C91199721153105C1F72EEE32E0199623
:100F50003C932E931897D5CF81E08093FF028EEEBD
:100F600092E0DF91CF910895CF93DF9300D000D02E
:100F7000CDB7DEB79091DB0399838A836B831C82A4
:100F80000E94420724E030E0AE014F5F5F4F61E016
:100F90000E946C060F900F900F900F90DF91CF91F1
:100FA0000895CF92DF92EF92FF920F931F93CF930A
:100FB000DF936C01EB017B01E40EF51E10E000E015
:100FC000CE15DF0581F069916D30D1F3D601ED9139
:100FD000FC910190F081E02DC6010995892B19F053
:100FE0000F5F1F4FEDCFC801DF91CF911F910F9180
:100FF000FF90EF90DF90CF900895CF93DF93EC01B7
:101000006838E0F06858FE0186E0662321F096819A
:10101000961301C01682815031968111F6CF0E943D
:101020004207AE014C5F5F4F28E030E062E00E9473
:101030006C0681E090E0DF91CF910895E62FF0E01B
:1010400067FF0EC0E058F10981E090E001C0880F11
:10105000EA95EAF780959C8189238C8360E0D3CF61
:10106000E85DFD4F649190E080E0662321F367FF27
:10107000CACF8C818D7F8C836F77C5CFCF93DF9361
:10108000EC01683858F168588E818617D1F08F814D
:101090008617B9F088858617A1F08985861789F0AB
:1010A0008A85861771F08B85861759F0FE01369672
:1010B00090E080E02191211137C08C0F9D1FFC0131
:1010C00066830E944207AE014C5F5F4F28E030E02C
:1010D00062E00E946C0681E090E01CC0E62FF0E028
:1010E00067FF0DC0E058F10921E030E001C0220F98
:1010F000EA95EAF78C81822B8C8360E0C5CFE85DAE
:10110000FD4F6491611109C081E090E09B838A8367
:1011100090E080E0DF91CF91089567FFB5CF8C819B
:1011200082608C836F77B0CF01968630910509F08D
:10113000C1CFEACFEF92FF921F93CF93DF93EC01E1
:10114000162F0E943E087C01612FCE010E94FD07F0
:10115000C7019927DF91CF911F91FF90EF900895DC
:1011600090E080E008958FB7F89480917C038FBF62
:1011700008958EBD00000DB407FEFDCF8EB5089515
:101180002F923F924F925F926F927F928F929F9297
:10119000AF92BF92CF92DF92EF92FF920F931F9385
:1011A000CF93DF938091F603882309F4A4C00E94B3
:1011B000BA052B013C018091000490910104A0919B
:1011C0000204B0910304A3019201281B390B4A0BBE
:1011D0005B0BDA01C9010397A105B10508F48BC0C7
:1011E0008091040490910504892B09F484C081E561
:1011F0008CBD81E08DBD60E08091F7030E944B04BF
:1012000081EB0E94B90881EC90E00E942B06EC0172
:1012100063E0D695C7956A95E1F7C150D04F81E953
:1012200090E00E942B0673E0969587957A95E1F7FA
:10123000C81BD90BC03931E0D3070CF448C081E991
:1012400090E00E942B0681ED90E00E942B066C013D
:1012500023E0D694C7942A95E1F781E990E00E94B3
:101260002B067C0133E0F694E7943A95E1F781EDA3
:1012700090E00E942B065C0143E0B694A7944A9547
:10128000E1F781E990E00E942B064C0153E096942F
:1012900087945A95E1F780ED90E00E942B068C012F
:1012A00090E080E00E942B061C0161E08091F70332
:1012B0000E944B04D7FF14C01092FF031092FE034C
:1012C0008091F8038F3FB9F01092F60314C0912C6F
:1012D000812CB12CA12CF12CE12CD12CC12CDBCFF9
:1012E000C03941E0D407D4F41092FF031092FE03FA
:1012F000CB34D1052CF3DF91CF911F910F91FF904B
:10130000EF90DF90CF90BF90AF909F908F907F90A5
:101310006F905F904F903F902F900895D093FF0370
:10132000C093FE03A80183E0569547958A95E1F79F
:10133000B501C6010E94F905EC01A10193E05695A3
:1013400047959A95E1F7B401C7010E94F9054092CB
:1013500000045092010460920204709203042091F0
:10136000F903213001F190F0223031F12FEF3FE00D
:10137000A9014C1B5D0B5093FB034093FA03281B00
:10138000390B3093FD032093FC03B5CF2FEF3FE0E3
:10139000281B390B3093FB032093FA03D093FD03F2
:1013A000C093FC03A8CFD093FB03C093FA039093A0
:1013B000FD038093FC039FCF9093FB038093FA037C
:1013C0008FEF9FE08C1B9D0BF2CFCF93DF93EC014F
:1013D00088819981009711F00E9446241982188211
:1013E0001D821C821B821A82DF91CF910895FC011D
:1013F00080819181009711F00C944624089542E079
:1014000050E06BEF71E08DE793E00C949B05CF9378
:10141000DF930E94B105EC010E94FF098C0F9D1F14
:10142000DF91CF910895CF93DF93FC0101900020CD
:10143000E9F73197AF01481B590BBC018DE793E0E9
:101440000E949B05EC010E94FF098C0F9D1FDF91FC
:10145000CF9108950F931F93CF93DF93EC01888171
:101460009981009759F02A813B812617370730F080
:1014700081E0DF91CF911F910F9108958B016F5FF4
:101480007F4F0E94CF24009759F0998388831B8354
:101490000A832C813D81232B59F7FC011082E8CF70
:1014A00080E0E7CFEF92FF920F931F93CF93DF93EC
:1014B0008C017B01EB0109900020E9F72197C61B05
:1014C000D70BBE010E942A0A811109C0C801DF9111
:1014D000CF911F910F91FF90EF900C94E509F801C7
:1014E000D583C483B70180819181DF91CF911F9112
:1014F0000F91FF90EF900C949C250F931F93CF9327
:10150000DF93CDB7DEB762970FB6F894DEBF0FBE9C
:10151000CDBF8C01CB01F80111821082138212829F
:10152000158214824AE0BE016F5F7F4F0E940C1D3E
:10153000BE016F5F7F4FC8010E94520A62960FB6CC
:10154000F894DEBF0FBECDBFDF91CF911F910F91F9
:101550000895EF92FF920F931F93CF93DF93CDB730
:10156000DEB7A1970FB6F894DEBF0FBECDBF7C01EA
:10157000CB01BA01F7011182108213821282158207
:1015800014828E010F5F1F4F22E044E00E94EE1C88
:10159000009789F0BC01C7010E94520AA1960FB6BC
:1015A000F894DEBF0FBECDBFDF91CF911F910F9199
:1015B000FF90EF900895C7010E94E509EFCF0F93C8
:1015C0001F93CF93DF93CDB7DEB761970FB6F89433
:1015D000DEBF0FBECDBF8C01CB01F801118210829E
:1015E00013821282158214824AE0BE016F5F7F4F20
:1015F0000E94391DBE016F5F7F4FC8010E94520AD1
:1016000061960FB6F894DEBF0FBECDBFDF91CF91CC
:101610001F910F910895EF92FF920F931F93CF9315
:10162000DF936115710541F480E0DF91CF911F9147
:101630000F91FF90EF90089541155105B1F07B0196
:10164000EC010C811D81040F151FB8010E942A0AAC
:10165000882351F3288139818C819D81B701820FC4
:10166000931F0E949C251D830C8381E0DECFCF93C6
:10167000DF93EC01FB0101900020E9F73197AF0106
:10168000461B570B0E940B0B811103C0CE010E9419
:10169000E509CE01DF91CF910895CF93DF93EC015F
:1016A000FB0144815581608171810E940B0B811186
:1016B00003C0CE010E94E509CE01DF91CF910895CC
:1016C000EF92FF920F931F93CF93DF9300D000D040
:1016D000CDB7DEB77C01862F4AE08E010F5F1F4F2A
:1016E000B80190E00E940C1DF80101900020E9F77C
:1016F0003197AF01401B510BB801C7010E940B0B82
:101700000F900F900F900F90DF91CF911F910F913D
:10171000FF90EF900895EF92FF920F931F93CF9356
:10172000DF93EC017B01198218821B821A821D82D1
:101730001C82FB0101900020E9F731978F01061B05
:10174000170BB8010E942A0A811109C0CE01DF914E
:10175000CF911F910F91FF90EF900C94E5091D839D
:101760000C83B70188819981DF91CF911F910F91EF
:10177000FF90EF900C949C25AF92BF92CF92DF9296
:10178000EF92FF920F931F93CF93DF93CDB7DEB706
:101790002C970FB6F894DEBF0FBECDBF082F10E018
:1017A000E62EF12C9EE0699F90011124F901E15D84
:1017B000FC4FE00FF11F9081C0901D01C91698F4F5
:1017C000915090832C960FB6F894DEBF0FBECDBF1C
:1017D000DF91CF911F910F91FF90EF90DF90CF900D
:1017E000BF90AF9008959C11EDCFD0902E03DD20D7
:1017F00009F44FC02A573E4FF901E00FF11F9081C5
:10180000B62EA82E692F8AEE93E00E94FD07CA9497
:101810008EE08E9D90018F9D300D1124215D3C4FF7
:10182000020F131FF801C082A110CCCFF2E0BF124B
:10183000C9CF61E0D626D0922E036D2D70E0CE0187
:1018400007960E947D0A6EEF71E0CE0101960E941C
:101850008B0BBE01695F7F4FCE0101960E944D0B3D
:101860006AE072E00E94370B8C016C2D0E94600BC5
:10187000811103C0C8010E94E509C8010E94070A3E
:10188000CE0101960E94F709CE0107960E94F70942
:1018900099CF205C3E4FB0CFCF92DF92EF92FF9274
:1018A0000F931F93CF93DF9300D000D000D0CDB71C
:1018B000DEB78C016330710509F453C030E020E0DD
:1018C000E3E0F0E0633071053CF02F5F3F4FCB0168
:1018D000BF010E949023F6CFB90161507109072E14
:1018E000000C880B990B0E949C1F9B01AC0160E0CF
:1018F00070E080E490E40E948A210E9454216B01F0
:10190000C8010E944C0C9A838983C6019927880FCD
:10191000991FB601800F911F0E944C0C9C838B83F2
:101920008C2D880F90E0880F991FB601800F911FB2
:101930000E944C0C9E838D8363E070E0CE01019683
:101940000E944C0C26960FB6F894DEBF0FBECDBF9A
:10195000DF91CF911F910F91FF90EF90DF90CF908B
:101960000895DC018D919C9111971296ED90FC9059
:1019700013971496ED91FC91BC016E197F0977FFC6
:1019800003C0719561957109709308036093070313
:10199000A7014E1B5F0B57FF03C05195419551099D
:1019A00050930A03409309039F01281B390B37FF0B
:1019B00003C031952195310930930C0320930B031B
:1019C0006417750744F4621773074CF48E0D9F1D5E
:1019D00095958795B7CF421753070CF4C7018E0F23
:1019E0009F1FF6CF1F93CF93DF93EC01162F0E941A
:1019F0009520181739F0612FCE01DF91CF911F91FB
:101A00000C949D20DF91CF911F9108950C94952007
:101A10001F920F920FB60F9211248F939F93809174
:101A2000E1009091E100937F9093E10083FF0FC06C
:101A30001092E90091E09093EB001092EC0092E399
:101A40009093ED0010927B0398E09093F00082FF5A
:101A500022C093E09093E9009091F200992319F04D
:101A60009AE39093E80090912703992341F0909195
:101A70002703915090932703911101C05D9A909193
:101A80007A03992341F090917A03915090937A03CD
:101A9000911101C0289A84FF18C08091E2008E7EC7
:101AA00081608093E2008091E1008F7E8093E1006D
:101AB000809128038E7E8061809328039F918F916F
:101AC0000F900FBE0F901F90189580FFF7CF809159
:101AD000E2008E7E80618093E2008091E1008E7E44
:101AE0008093E100809128038E7E8160E5CF1F9274
:101AF0000F920FB60F921124CF92DF92EF92FF92C6
:101B00000F931F932F933F934F935F936F937F9305
:101B10008F939F93AF93BF93EF93FF93CF93DF93F5
:101B2000CDB7DEB76C97DEBFCDBF1092E9008091D4
:101B3000E80083FF25C068E0CE0145960E940203BD
:101B400082EF8093E8008D8987FF39C09091E8008B
:101B500090FFFCCF982F907609F034C19E894F8971
:101B6000588D2F89F88C911131C0803861F58091A2
:101B700029038093F1001092F1008EEF8093E8002A
:101B80006C960FB6F894DEBF0FBECDBFDF91CF913C
:101B9000FF91EF91BF91AF919F918F917F916F9145
:101BA0005F914F913F912F911F910F91FF90EF9077
:101BB000DF90CF900F900FBE0F901F9018959EEF63
:101BC0009093E800C7CF1092F100D5CF913059F42F
:101BD0008111D3CF4130510581F6809129038D7F4A
:101BE00080932903CACF933049F48111C6CF413085
:101BF000510519F6809129038260F2CF953041F4A6
:101C00008091E80080FFFCCF20682093E300B5CFEF
:101C1000963009F0A9C00B8D1C8D22E01092E900CE
:101C20001092250310922403F2122EC01092230367
:101C3000109222030E9423031F8299E09983FA8263
:101C400091E09E8390EA98879AEF998720912403E8
:101C500030912503275F3F4F3C832B838D83109268
:101C6000E90010922503109224031093230300939C
:101C7000220349E050E0BE016F5F7F4F80E00E9489
:101C8000CB020E94230379CF1093230300932203F6
:101C90000E940F03DC0112960D911C910115110594
:101CA00009F451C1D801ED91FC910480F581E02D3A
:101CB000BE016B5E7F4FC8010995009709F03EC1D8
:101CC000F80100851185EACFF3E0FF120EC08F897D
:101CD000882309F440C0823061F440E860E189E380
:101CE00093E00E94B610811148CF81E28093EB000F
:101CF00047CF813029F440E86BE08DE293E0F1CFEB
:101D0000833099F70E940F03DC011296ED90FC904E
:101D10008E010F5F1F4F6801E114F10479F0D701C4
:101D2000ED91FC910680F781E02DB801C70109957E
:101D3000080F111DF701E084F184EECFD8011C9249
:101D4000F60101900020E9F73197BF016C197D0978
:101D500040E0C601C6CF67E173E0FB01449150E06B
:101D600080E80E94CB0209CF973009F4BECF9830AB
:101D700021F481E08093F10000CF993009F0FDCE8D
:101D8000837009F0B2CFE1E0F1E081E031E096E369
:101D90002191222371F08093E9003093EB00DF0161
:101DA00011972C912093EC009093ED008F5F87307A
:101DB00079F78EE78093EA001092EA008F8980938A
:101DC0007B03DBCE8B8D9C8D1092E9001092250356
:101DD000109224039093230380932203898D811111
:101DE00092C08E899D89913A49F4813209F07DCF64
:101DF00047E050E065E171E080E0B3CF913209F057
:101E000074CF833269F48F89988DB0E0A0E080931D
:101E1000070190930801A0930901B0930A01ADCE88
:101E2000803269F48091E80082FFFCCF67E085E1B1
:101E300091E00E9402038BEF8093E8009ECE8232F5
:101E400009F09BCE8F8980931C01EEEFFFE785910F
:101E500094918B3F9C4D51F1E0E0F8E080911501A9
:101E600090911601A0911701B0911801803B944008
:101E7000A105B105F1F480911C0180FD1AC0EE3F6F
:101E80008AE0F80789F587E797E791838083809157
:101E900060008093260388E19BE00FB6F894A89534
:101EA000809360000FBE9093600067CEEEEFFAE083
:101EB000D5CF808191818737974709F05ECEA8956D
:101EC00080916000886180936000809126038093F8
:101ED0006000EE3F2AE0F20789F08091FE0A9091BF
:101EE000FF0A9183808349CE80819181873798074B
:101EF00051F29093FF0A8093FE0AC5CF1092FF0A19
:101F00001092FE0A3ACE0E940F03DC0112960D9148
:101F10001C910115110509F4E8CED801ED91FC9151
:101F20000190F081E02DBE016B5E7F4FC8010995E5
:101F3000811123CEF80100851185EBCF1816190603
:101F40000CF41BCED2CEF1E0FF12BECE6BE173E0FB
:101F500004CF1F920F920FB60F9211242F933F932D
:101F60008F939F93AF93BF9380910E0390910F0334
:101F7000A0911003B091110330910D0323E0230FC2
:101F80002D3758F50196A11DB11D20930D038093A7
:101F90000E0390930F03A0931003B093110380914D
:101FA000120390911303A0911403B09115030196AD
:101FB000A11DB11D8093120390931303A0931403EA
:101FC000B0931503BF91AF919F918F913F912F9146
:101FD0000F900FBE0F901F90189526E8230F0296C2
:101FE000A11DB11DD2CF1F920F920FB60F921124D7
:101FF0002F933F934F935F936F937F938F939F9311
:10200000AF93BF93EF93FF93E0911301F09114010D
:102010000995FF91EF91BF91AF919F918F917F9122
:102020006F915F914F913F912F910F900FBE0F9045
:102030001F9018951F920F920FB60F9211242F9395
:102040003F934F935F936F937F938F939F93AF9340
:10205000BF93EF93FF93E0911101F0911201099565
:10206000FF91EF91BF91AF919F918F917F916F9170
:102070005F914F913F912F910F900FBE0F901F9046
:1020800018951F920F920FB60F9211242F933F9322
:102090004F935F936F937F938F939F93AF93BF9370
:1020A000EF93FF93E0910F01F09110010995FF91DB
:1020B000EF91BF91AF919F918F917F916F915F91C0
:1020C0004F913F912F910F900FBE0F901F90189539
:1020D0001F920F920FB60F9211242F933F934F939D
:1020E0005F936F937F938F939F93AF93BF93EF9380
:1020F000FF93E0910D01F0910E010995FF91EF9191
:10210000BF91AF919F918F917F916F915F914F910F
:102110003F912F910F900FBE0F901F9018951F9217
:102120000F920FB60F9211242F933F934F935F930B
:102130006F937F938F939F93AF93BF93EF93FF938F
:10214000E0910B01F0910C010995FF91EF91BF9186
:10215000AF919F918F917F916F915F914F913F913F
:102160002F910F900FBE0F901F901895EF92FF9236
:102170000F931F93CF93DF93F82E192FE62E042F82
:1021800081E0860F880F0E949D0283E00E949D02DD
:10219000CF2DD12FEC0EFD2EF11CCE15DF05B9F0A1
:1021A00007FF13C0FE0184910E949D02182F80E05A
:1021B0000E949D02812321968111EFCFDF91CF9163
:1021C0001F910F91FF90EF9008958881EDCF81E0EE
:1021D000F5CF0F931F93CF93DF93CDB7DEB7A197C2
:1021E0000FB6F894DEBF0FBECDBF8C01CB01BA0194
:1021F000F8011182108213821282158214822AE061
:10220000AE014F5F5F4F0E94171DBE016F5F7F4F92
:10221000C8010E94520AA1960FB6F894DEBF0FBE05
:10222000CDBFDF91CF911F910F9108951092800340
:1022300010927F0388EE93E0A0E0B0E080938103EA
:1022400090938203A0938303B093840381EE91E083
:1022500090937E0380937D038FEF9FEF90938A038B
:10226000809389031092DB038091D303811113C003
:102270001092CE031092CD0388E593E09093D003A3
:102280008093CF0386E390E09093D2038093D103B1
:1022900081E08093D3030E944207FC01A385B485AB
:1022A000109709F050C18DEC93E094878387858562
:1022B00096852091D1033091D203820F931F968788
:1022C00085871092ED031092EC0383EF91E09093D9
:1022D000EB038093EA038091E203811113C0109213
:1022E000DD031092DC038EE893E09093DF0380938C
:1022F000DE038FE290E09093E1038093E00381E0BE
:102300008093E2030E944207FC01A385B4851097E5
:1023100009F024C18CED93E09487838785859685A9
:102320002091E0033091E103820F931F9687858708
:102330001092A4041092AB041092B2041092B30451
:102340001092B4041092B50481E08093B10480939C
:10235000AE041092AF0492E09093B0048093A30473
:1023600086E090E09093A8048093A7040E94AA239B
:102370009093AD048093AC04009709F4F9C026E073
:10238000FC0111922A95E9F782E090E09093A6046F
:102390008093A50487E090E09093AA048093A90419
:1023A0008091A404882341F061E087E00E947904D1
:1023B00060E087E00E944B04E1EFF3E0E491F0E09D
:1023C000EE0FFF1FE452FC4F859194919093B70458
:1023D0008093B604E4ECF3E0E491E093B80480E188
:1023E000EEE1F1E0A6EFB3E001900D928A95E1F7FE
:1023F00084E090E0909307048093060486E090E0E8
:10240000909309048093080488E090E090930B0473
:1024100080930A048AE090E090930D0480930C046A
:1024200082E0809316041092180410921704109200
:102430001A041092190410921C0410921B0410929A
:102440001E0410921D041092200410921F0410927A
:1024500022041092210480E090E0A0E8BFE3809382
:10246000270490932804A0932904B0932A0480930E
:102470002B0490932C04A0932D04B0932E0410925F
:10248000300410922F0410923204109231041092F2
:10249000340410923304109236041092350483E011
:1024A00090E0909338048093370485E080936E0425
:1024B0008AE080936F0488EE93E090937104809398
:1024C000700486E990E0909373048093720481E035
:1024D00090E0909379048093780490937B048093A8
:1024E0007A0490937D0480937C0410927F04109270
:1024F0007E04109281041092800410928304109242
:10250000820463E172E087E894E00E948B0B65EE41
:1025100072E08DE894E00E948B0B6BE172E083E93E
:1025200094E00E948B0B65E272E089E994E00E94DE
:102530008B0B10929F041092A0041092A104109291
:10254000A2040895DC018D919C9111970097D1F719
:102550008DEC93E08D939C93AACEDC018D919C91A0
:1025600011970097D1F78CED93E08D939C93D6CE85
:102570001092A8041092A7041092A6041092A50429
:1025800009CFCF93DF93CDB7DEB76B970FB6F89433
:10259000DEBF0FBECDBF789484B5826084BD84B5A4
:1025A000816084BD85B5826085BD85B5816085BD4E
:1025B00080916E00816080936E0010928100809106
:1025C000810082608093810080918100816080938E
:1025D00081008091800081608093800080919100D3
:1025E000826080939100809191008160809391003E
:1025F000809190008160809390008091C100846000
:102600008093C1008091C10082608093C10080915D
:10261000C10081608093C1008091C300816080937C
:10262000C3008091C00082608093C0008091C2008E
:1026300081608093C20080917A00846080937A00E8
:1026400080917A00826080937A0080917A00816024
:1026500080937A0080917A00806880937A0010924B
:102660007B0310922903109228038091D700816088
:102670008093D70080EA8093D80089B5806189BDB6
:1026800089B5826089BD09B400FEFDCF61E070E0CC
:1026900080E090E00E94CF048091D8008F7C806120
:1026A0008093D8008091E000807F8093E00080914B
:1026B000E1008E7E8093E1008DE08093E200559AE8
:1026C000209A8FEF9FEF90938A03809389038091E4
:1026D000A9049091AA0497FD08C061E00E947904C2
:1026E00060E08091A9040E944B0481E08093A404DF
:1026F0004091A7045091A80470E060E08091AC0480
:102700009091AD040E9495251092860480E293E09A
:10271000909324048093230480E991E0909326040D
:10272000809325048DE293E0909305048093040444
:102730001FB7F89480912A03811127C0EBEFF3E0D3
:102740008491EEECF3E09491E82FF0E0EE0FFF1FA0
:10275000E65BFC4FA591B491EC91E92321F461E093
:1027600081E10E944B0461E081E10E9479048CB513
:1027700080618CBD8CB580648CBD61E08FE00E946F
:10278000790461E080E10E94790480912A038F5FDF
:1027900080932A031FBF61E08091F7030E947904B0
:1027A00061E08091F7030E944B048091F8038F3F12
:1027B000F1F060E00E9479048091F803882309F425
:1027C00046C4813009F012C486E992E09093120168
:1027D00080931101809169008F73806880936900F4
:1027E000EB9A86EF93E090932C0380932B038091D8
:1027F000160483708093F90381E08093840410921F
:10280000850463E080910804909109040E94F20C11
:10281000809108049091090468EE01960E94F20CE0
:102820006EE080910C0490910D040E94F20C809156
:102830000C0490910D0460E101960E94F20C63E09B
:1028400080910604909107040E94F20C8091060486
:102850009091070468EE01960E94F20C6EE0809160
:102860000A0490910B040E94F20C80910A0490914A
:102870000B0460E101960E94F20C00910604109195
:102880000704C8010E94060DC82EC80101960E94C7
:10289000060DD12CDC2CCC24C80ED11CD0920F04F8
:1028A000C0920E040091080410910904C8010E940E
:1028B000060DA82EC80101960E94060DB12CBA2C57
:1028C000AA24A80EB11CB0921104A0921004009189
:1028D0000A0410910B04C8010E94060DE82EC801DD
:1028E00001960E94060DF12CFE2CEE24E80EF11C40
:1028F000F0921304E092120480900C0490900D0466
:10290000C4010E94060D082FC40101960E94060D05
:1029100010E0102F0027080F111D109315040093CD
:102920001404C7018C199D0960912304709124043B
:102930000E947C2390E080E00E949A1F609327040D
:10294000709328048093290490932A04C8018A195B
:102950009B0960912504709126040E947C2390E0DD
:1029600080E00E949A1F60932B0470932C04809344
:102970002D0490932E0480918604882309F4ABC023
:10298000B601CE010D960E94DF0A6091120470918B
:102990001304CE0107960E94DF0A61E372E0CE01C4
:1029A00001960E948B0BBE01695F7F4FCE0101969D
:1029B0000E944D0B68E372E00E94370BBE01635F1B
:1029C0007F4F0E944D0B0E94070ACE0101960E9484
:1029D000F709CE0107960E94F709CE010D960E94D5
:1029E000F7096091100470911104CE010D960E94B8
:1029F000DF0A6091140470911504CE0107960E94BD
:102A0000DF0A61E472E0CE0101960E948B0BBE01E9
:102A1000695F7F4FCE0101960E944D0B68E472E022
:102A20000E94370BBE01635F7F4F0E944D0B0E94D7
:102A3000070ACE0101960E94F709CE0107960E946F
:102A4000F709CE010D960E94F70940912704509195
:102A500028046091290470912A04CE0107960E94EF
:102A6000A90A61E572E0CE0101960E948B0BBE01BE
:102A7000695F7F4FCE0101960E944D0B0E94070AAD
:102A8000CE0101960E94F709CE0107960E94F70930
:102A900040912B0450912C0460912D0470912E04D0
:102AA000CE0107960E94A90A69E572E0CE0101965F
:102AB0000E948B0BBE01695F7F4FCE0101960E9481
:102AC0004D0B0E94070ACE0101960E94F709CE0124
:102AD00007960E94F70906ED11E09DEDC92E91E0E1
:102AE000D92EF801F1908F0161E08F2D0E947904B9
:102AF00061E08F2D0E944B04C016D10691F70CECBB
:102B000011E086EDC82E81E0D82EF801F1908F01FA
:102B100060E08F2D0E94790461E08F2D0E944B04AC
:102B2000C016D10691F780911D01819580931D01FA
:102B3000B2E02B2E312C0AE010E0F2E04F2EA6E09E
:102B40005A2E0E94C0088091FE039091FF038039A5
:102B500091400CF42FC60E94C0086090FE03709054
:102B6000FF03E090FC03F090FD03C090FA03D090C7
:102B7000FB03D0923004C0922F04F0923204E09212
:102B8000310424E1621625E072060CF4F6C4D092FA
:102B90003404C0923304F0923604E092350460911C
:102BA00037047091380480916104861717060CF47D
:102BB000DAC0109261048DE394E00E944C0C909373
:102BC000200480931F0460913704709138048FE4CF
:102BD00094E00E944C0C5C019093220480932104A9
:102BE00060911F047091200480911B0490911C043B
:102BF000681B790B072E000C880B990B0E949C1FF9
:102C000020912704309128044091290450912A04EE
:102C10000E94E22020E030E040E450E40E94E22004
:102C20000E94542170933A046093390480911D04EA
:102C300090911E04B501681B790B072E000C880BC0
:102C4000990B0E949C1F20912B0430912C044091E1
:102C50002D0450912E040E94E22020E030E040EC50
:102C60005FE30E94E2200E94542170933C04609331
:102C70003B0480918604882351F00E94BA0560933A
:102C80009F047093A0048093A1049093A204809168
:102C90007A0490917B04019731F060913B0480911C
:102CA00039040E94B407809186048823F1F02091B2
:102CB0007A0430917B04529EC001539E900D1124E2
:102CC000FC01E957FB4F5F0160EA72E0CE0101961B
:102CD0000E948B0BB501CE0101960E944D0B0E9404
:102CE000070ACE0101960E94F70980911F04909176
:102CF000200490931C0480931B04809121049091E4
:102D0000220490931E0480931D041092610410927B
:102D1000200410921F04109222041092210480912A
:102D20007A0490917B048130910509F49EC108F4E6
:102D300085C28230910509F43CC3039709F43EC370
:102D400020917A0430917B048091780490917904E9
:102D50002817390741F030937D0420937C04909329
:102D60007B0480937A0420916104822F90E0F0909C
:102D70002F0460913004880F991F8A509C4FFC01EA
:102D8000E95BFF4FF0826183875A9F4F4091310486
:102D900050913204FC01518340832F5F20936104E2
:102DA00080918504882309F4E4C38F2D962F209108
:102DB00012043091130428173907A8F580910A04EA
:102DC00090910B040E94F20C80910A0490910B04E4
:102DD0006F2D01960E94F20C60912F0470913004C7
:102DE0007093130460931204809186048823D9F0B1
:102DF000CE0107960E947D0A67EB72E0CE01019634
:102E00000E948B0BBE01695F7F4FCE0101960E942D
:102E10004D0B0E94070ACE0101960E94F709CE01D0
:102E200007960E94F709F0902F04609130048F2DCF
:102E3000962F20910E0430910F0482179307A8F566
:102E400080910604909107040E94F20C8091060480
:102E5000909107046F2D01960E94F20C60912F044F
:102E60007091300470930F0460930E048091860477
:102E70008823D9F0CE0107960E947D0A6FEB72E09D
:102E8000CE0101960E948B0BBE01695F7F4FCE0180
:102E900001960E944D0B0E94070ACE0101960E94E6
:102EA000F709CE0107960E94F709F090310460916E
:102EB00032048F2D962F2091140430911504281779
:102EC0003907A8F580910C0490910D040E94F20C32
:102ED00080910C0490910D046F2D01960E94F20CCC
:102EE000609131047091320470931504609314045E
:102EF000809186048823D9F0CE0107960E947D0A2E
:102F000067EC72E0CE0101960E948B0BBE01695FF7
:102F10007F4FCE0101960E944D0B0E94070ACE0101
:102F200001960E94F709CE0107960E94F709F090DA
:102F30003104609132048F2D962F2091100430912E
:102F4000110482179307A8F5809108049091090451
:102F50000E94F20C80910804909109046F2D019653
:102F60000E94F20C6091310470913204709311044C
:102F700060931004809186048823D9F0CE010796CF
:102F80000E947D0A6FEC72E0CE0101960E948B0BCD
:102F9000BE01695F7F4FCE0101960E944D0B0E94DA
:102FA000070ACE0101960E94F709CE0107960E94FA
:102FB000F7098DE793E00E94BC03892B09F4D9C27D
:102FC0006DEF71E0CE0101960E948B0B0E94C60549
:102FD00097FDF9C18F83188641E050E0BE01695F1B
:102FE0007F4FCE0101960E940B0BF0CF823071F41F
:102FF00086E992E090930E0180930D018091690023
:10300000837F886080936900E99AEBCB833071F409
:1030100086E992E090930C0180930B018091690006
:103020008C7F826080936900E89ADBCB873009F05F
:10303000D8CB86E992E0909314018093130180919C
:103040006A008F7C806280936A00EE9ACACB86E920
:1030500092E09093100180930F01809169008F7C22
:10306000806280936900EA9ABCCB0E94BA056093A3
:1030700066047093670480936804909369041092C7
:1030800075041092740480917C0490917D04892BC6
:1030900009F094C180917A0490917B04019709F022
:1030A0008DC180918604882309F475C04091620423
:1030B000509163046091640470916504CE01079699
:1030C0000E94E91061E672E0CE0101960E948B0B2E
:1030D000BE01695F7F4FCE0101960E944D0B0E9499
:1030E000B105CE0101960E94F709CE0107960E9414
:1030F000F7094091660450916704609168047091EB
:103100006904CE0107960E94E9106FE672E0CE01D5
:1031100001960E948B0BBE01695F7F4FCE01019625
:103120000E944D0B0E94B105CE0101960E94F70945
:10313000CE0107960E94F7094091660450916704FA
:1031400060916804709169048091620490916304B5
:10315000A0916404B0916504481B590B6A0B7B0B6A
:10316000CE0107960E94E91067E872E0CE01019651
:103170000E948B0BBE01695F7F4FCE0101960E94BA
:103180004D0B0E94070ACE0101960E94F709CE015D
:1031900007960E94F7094091660450916704609178
:1031A0006804709169048091620490916304A09115
:1031B0006404B0916504481B590B6A0B7B0B80912A
:1031C000720490917304B0E0A0E084179507A607FD
:1031D000B70708F4B5CD809186048823D9F0CE01D5
:1031E00007960E94E9106CE772E0CE0101960E94FA
:1031F0008B0BBE01695F7F4FCE0101960E944D0B84
:103200000E94070ACE0101960E94F709CE01079697
:103210000E94F70923E030E030937904209378048A
:103220009091DB03892F8160981709F489CD8093F1
:10323000DB0360E080E00E94B40782CD1092790445
:103240001092780480916E0490E0209139043091BE
:103250003A04821793070CF49DC020913B043091EF
:103260003C04821793070CF495C0809174049091EC
:1032700075049C012F5F3F4F3093750420937404B5
:1032800020916F042817190611F008F076C00E94EB
:10329000BA058090660490906704A0906804B0908E
:1032A0006904AB01BC01481959096A097B0980917D
:1032B000700490917104B0E0A0E0481759076A07C4
:1032C0007B0708F45AC080907C0490907D0433E022
:1032D0008316910409F451C080918604882359F122
:1032E00020917A0430917B04529EC001539E900D30
:1032F0001124FC01E957FB4F5F0162E972E0CE0146
:1033000001960E948B0B589CB001599C700D1124A2
:1033100069577B4FCE0101960E944D0B6FE972E019
:103320000E94370BB5010E944D0B0E94070ACE0187
:1033300001960E94F7098DEA92E00E94130A4092DA
:10334000DB0360E080E00E94B4071092DB0360E0E2
:1033500080E00E94B40710927504109274040E94D9
:10336000BA05609366047093670480936804909331
:1033700069043092790420927804D0927F04C0923C
:103380007E04F0928104E092800470928304609243
:103390008204D6CC10927504109274040E94BA056F
:1033A0006093660470936704809368049093690443
:1033B000E4CF9093790480937804C2CC109279047E
:1033C00010927804BDCC67ED72E0CE0101960E94A8
:1033D000520A89819A81F12CE12C892B21F078E421
:1033E000E72E76E0F72ECE0101960E94F709EF282E
:1033F00009F4BFC0C0900604D0900704C6010E9423
:10340000060DE82EC60101960E94060DF12CFE2C39
:10341000EE24E80EF11CF0920F04E0920E04C0902E
:103420000804D0900904C6010E94060DB82EC601FA
:1034300001960E94060D2B2D30E0322F2227820F9D
:10344000932F911D9093110480931004C0900A044F
:10345000D0900B04C6010E94060DB82EC60101963D
:103460000E94060D2B2D30E0322F2227820F932F42
:10347000911D9093130480931204C0900C04D0907B
:103480000D04C6010E94060DB82EC60101960E94C9
:10349000060D2B2D30E0322F2227820F932F911D06
:1034A0009093150480931404B701CE010D960E94E9
:1034B000DF0A6091120470911304CE0107960E94F6
:1034C000DF0A61E372E0CE0101960E948B0BBE0120
:1034D000695F7F4FCE0101960E944D0B68E372E059
:1034E0000E94370BBE01635F7F4F0E944D0B0E940D
:1034F000070ACE0101960E94F709CE0107960E94A5
:10350000F709CE010D960E94F709609110047091A1
:103510001104CE010D960E94DF0A6091140470918F
:103520001504CE0107960E94DF0A61E472E0CE0125
:1035300001960E948B0BBE01695F7F4FCE01019601
:103540000E944D0B68E472E00E94370BBE01635F7E
:103550007F4F0E944D0B0E94070ACE0101960E94E8
:10356000F709CE0107960E94F709CE010D960E9439
:10357000F70910927704109276040150110909F0AE
:10358000E0CA80917703909178036AE070E00E942E
:1035900090238C01D62E05971CF08DE0D82ED61ADC
:1035A000D0927603C02E053011051CF08BEFC82E8B
:1035B000C00EC09275036A527E4FFB01F08060E03E
:1035C0008F2D0E944B04F801E453FE4F1081812F90
:1035D0000E942204892B09F09EC161E08F2D0E9478
:1035E0004B04812F0E942204892B09F494C10D2DD4
:1035F00010E0EC2CF12CFEE0CF9EC0011124FC0168
:10360000E15DFC4FE00FF11F2081233008F027C15E
:103610002F5F208380917703909178038534910503
:103620000CF07EC10196909378038093770380918C
:10363000A5049091A604892B59F080917903482F15
:10364000440F440F480F60E090E080E00E94310298
:1036500060E081E10E944B0485EA0E94B90885EA96
:103660000E94B908182F61E081E10E944B0480910B
:10367000A5049091A604029790F0812F90E0412F2D
:10368000883191050CF448E148516AE170E0681B0B
:10369000790B77FD60E081E090E00E94310280913B
:1036A000AC049091AD04892B09F47CC00E94AA045B
:1036B0000091B2041091B3042091B4043091B50488
:1036C000601771078207930740F46093B204709308
:1036D000B3048093B4049093B5040091B2041091A4
:1036E000B3042091B4043091B504601B710B820BBC
:1036F000930B6C32714081059105C0F2F894809172
:10370000A7049091A8049C8B8B8BE091AC04F09162
:10371000AD04DF01119680818B8F9091A304E0911D
:10372000B604F091B7048091B804992309F4FDC060
:103730009081982B9A8F908180958923898F898D8C
:103740008E8B88E08D8B5A8D698D4B8D3D892E89AE
:103750008B899C89508347FD252F3A952083262FFE
:1037600039F0441F00C000006083000000C0F2CFA9
:1037700038E04D9160830000019761F7F093B70442
:10378000E093B6044B8F3D8B2E8B9C8B8B8B789468
:103790000E94AA046093B2047093B3048093B404AB
:1037A0009093B50480E090E0892B09F4C4C90E948D
:1037B0000000BEC980917604909177049C012F5F30
:1037C0003F4F3093770420937604883E934008F46B
:1037D000D4CE8091DB0380FF0AC0982F9E7F80FFAC
:1037E00006C09093DB0360E080E00E94B407809104
:1037F000DB0381FF0AC0982F9D7F81FF06C0909355
:10380000DB0360E080E00E94B40780917A0490912D
:103810007B048130910509F4ACCE90937D048093B4
:103820007C0421E030E030937B0420937A040E94F2
:10383000BA05609362047093630480936404909368
:103840006504109275041092740480918604882394
:1038500009F48FCE8BED92E00E94130A8ACE2330BA
:1038600009F0D8CEB0902E03BB2009F451C08A577E
:103870009E4FFC01E00FF11F60818AEE93E00E94F1
:103880003E082EE02E9DC0012F9D900D1124815DDC
:103890009C4F080F191F84E0F8018083D110BACE25
:1038A000F2E0CF12B7CE8091790391E0B926B092C1
:1038B0002E038927809379036B2D70E0CE0101964A
:1038C0000E947D0A6EEF71E0CE0107960E948B0B7D
:1038D000BE016F5F7F4FCE0107960E944D0B6AE0DD
:1038E00072E00E94370B8C0164E00E94600B811132
:1038F00003C0C8010E94E509C8010E94070ACE0161
:1039000007960E94F709CE0101960E94F70982CE20
:10391000805C9E4FAECF6C2D8D2D0E94BC0B7ACE5D
:10392000109278031092770382CE9081982B9A8F11
:10393000908180958923898F898D888F88E08F8BEE
:103940005A8D698D4B8D3F89288D8B899C89508339
:1039500047FD252F00C000C0208300C000C000C06C
:1039600000C000C060830000262F3A9541F0441F3C
:10397000000000C000C000C000C000C0E8CF38E0B8
:103980004D9100C0608300C0019709F7F093B70420
:10399000E093B6044B8F3F8B288FF7CE89E994E0F4
:1039A0000E94F70983E994E00E94F7098DE894E00A
:1039B0000E94F70987E894E00E94F7098091AC041F
:1039C0009091AD040E9446248091A9049091AA048C
:1039D00097FD03C060E00C9479040895EF920F9373
:1039E0001F93CF93DF93E80134E047FD34E1042EC9
:1039F000000C550B57FF03C0519541955109E32E1B
:103A0000022F242FAE010E94531DCE01DF91CF91D2
:103A10001F910F91EF900895BB274A3031F49923FD
:103A200022F4BDE2909581959F4F0C943A1DBB27DF
:103A3000FA01A62F6217710581059105330B30FB42
:103A400066F0AA27660F771F881F991FAA1FA21763
:103A500010F0A21B63953850A9F7A05DAA3308F0B7
:103A6000A95DA19336F7B111B1931082CA010C94EC
:103A70008A1FBB27FB015527AA27880F991FAA1F5A
:103A8000A41710F0A41B83955051B9F7A05DAA3379
:103A900008F0A95DA193009779F7B111B193119244
:103AA000CB010C948A1FA9E0B0E0E9E5FDE10C949C
:103AB000B1206A01F22EB02E102FFBE3AF2EA0161C
:103AC00008F41BE31F5F012F27E0AE014F5F5F4F3C
:103AD0000E94B21EBC018981982F9970913009F41F
:103AE0003FC09BE2E1FC04C09E2D9170E0FC3AC017
:103AF0005E2D5071E82FE87083FF46C084E091117D
:103B000001C083E0EF2DE81B8F1508F0E0E0D6013F
:103B10008E2F20E2552351F1992329F0D6019C9351
:103B2000C60101966C0196012D5F3F4FE2FE24C055
:103B30008EE4D6018C9391E411969C931197129682
:103B40008C93D9018E2F90E281111BC0E20FF32FCD
:103B5000F11D10828EEF9FEF2996ECE00C94CD20A2
:103B60009DE2C6CF90E2C4CF2D9381508111FCCF4E
:103B7000CE0ED11CE0E0D0CF8EE6D6018C9391E63C
:103B8000DBCF9D938150E0CF482F447082FF3DC032
:103B900084E0911101C083E08F1510F4EF2DE81B34
:103BA000D6018E2F20E2552309F1992329F0D60161
:103BB0009C93C60101966C0196012D5F3F4FE2FE7A
:103BC0001BC089E4D6018C938EE411968C931197D7
:103BD00086E412968C93D9018E2F90E2882309F403
:103BE000B5CF9D938150FACF2D9381508111FCCF99
:103BF000CE0ED11CE0E0D9CF89E6D6018C938EE6BB
:103C000011968C93119786E6E4CF9B0177FF02C053
:103C100030E020E0A1E0B0E0911102C0B0E0A0E00F
:103C2000F9013196AE0FBF1F8B2C912CBB2009F4EC
:103C300061C05401EFEFAE1ABE0AAA0DBB1DFA1601
:103C40001B0619F014F04F2D4A1B511188C0E3FCDC
:103C500059C07601A42FB0E2A1114FC0C40ED11CEF
:103C6000992309F45BC040E0D6011196F6019083D8
:103C70006D01552309F448C0012F060F9A81582F72
:103C8000507184FF03C0913309F4015010160CF0F9
:103C900047C0093008F008E0EEE2FE2E5B01A01AF2
:103CA000B10885019194819491082F3F320729F43E
:103CB000D601FC92F60131966F016217730794F1F9
:103CC000021713077CF5DB01A21BB30BAA24A394F4
:103CD000B12CAC0EBD1EAA0DBB1D11968C912150AE
:103CE0003109D601119628153905F4F0F6018083C3
:103CF0006D01DBCFB12CA12CA0CFF701B1937F01D7
:103D0000A150AACF9111B0CFD601942F50E302C099
:103D10005D9391509111FCCFC40ED11C40E0ACCF0B
:103D200001E0BACF80E3DBCF6217730731F496333B
:103D300088F4953311F4552369F0F6018083FD0171
:103D4000842F90E2811108C0A40FB11D1C9290E055
:103D500080E002CF81E3F1CF91938150F3CF9111B5
:103D600083CF8ACF283008F027E03327DA01990F74
:103D7000311D87FD916000966105710539F432604F
:103D80002E5F3D9330E32A95E1F708959F3F30F091
:103D900080387105610509F03C5F3C5F3D939130CF
:103DA00008F08068911DDF93CF931F930F93FF92CC
:103DB000EF92192F987F9695E92F96959695E90F92
:103DC000FF27E857FE4F99273327EE24FF24A7014A
:103DD000E70105900894079428F4360FE71EF81EB3
:103DE000491F511D660F771F881F991F0694A1F761
:103DF0000590079428F4E70EF81E491F561FC11DB1
:103E0000770F881F991F661F0694A1F705900794E6
:103E100028F4F80E491F561FC71FD11D880F991F80
:103E2000661F771F0694A1F70590079420F4490FA9
:103E3000561FC71FD81F990F661F771F881F06942C
:103E4000A9F784911095177041F0D695C7955795AD
:103E50004795F794E7941A95C1F7EEE2F1E068947C
:103E60001590159135916591959105907FE2739527
:103E7000E118F10A430B560BC90BD009C0F7E10C4E
:103E8000F11E431F561FC91FD01D7EF4703311F45D
:103E90008A95E6CFE894015030F0080F0AF4002725
:103EA000021708F4202F2395022F7A3328F079E3A4
:103EB0007D932A95E9F710C07D932A9589F606949B
:103EC00097956795379517951794E118F10A430B65
:103ED000560BC90BD00998F023957E9173957A33D0
:103EE00008F070E37C932013B8F77E9170617D93A6
:103EF00030F0839571E37D9370E32A95E1F7112407
:103F0000EF90FF900F911F91CF91DF91992787FD3F
:103F100090950895DC01FC01672F71917723E1F7FB
:103F2000329704C07C916D9370836291AE17BF0786
:103F3000C8F30895E89409C097FB3EF490958095E6
:103F4000709561957F4F8F4F9F4F9923A9F0F92F5F
:103F500096E9BB279395F695879577956795B795DD
:103F6000F111F8CFFAF4BB0F11F460FF1BC06F5FC3
:103F70007F4F8F4F9F4F16C0882311F096E911C0D5
:103F8000772321F09EE8872F762F05C0662371F0F6
:103F900096E8862F70E060E02AF09A95660F771F0A
:103FA000881FDAF7880F9695879597F908950E94EC
:103FB000EA1F0C945B200E944D2038F00E94542090
:103FC00020F0952311F00C9444200C944A201124E5
:103FD0000C948F200E946C2070F3959FC1F3950F75
:103FE00050E0551F629FF001729FBB27F00DB11D7D
:103FF000639FAA27F00DB11DAA1F649F6627B00D0D
:10400000A11D661F829F2227B00DA11D621F739FF5
:10401000B00DA11D621F839FA00D611D221F749F03
:104020003327A00D611D231F849F600D211D822F4A
:10403000762F6A2F11249F5750409AF0F1F0882371
:104040004AF0EE0FFF1FBB1F661F771F881F91509E
:104050005040A9F79E3F510580F00C9444200C94E9
:104060008F205F3FE4F3983ED4F38695779567956C
:10407000B795F795E7959F5FC1F7FE2B880F911DC8
:104080009695879597F9089597F99F6780E870E06E
:1040900060E008959FEF80EC089500240A941616BE
:1040A000170618060906089500240A941216130626
:1040B000140605060895092E0394000C11F48823B4
:1040C00052F0BB0F40F4BF2B11F460FF04C06F5FD0
:1040D0007F4F8F4F9F4F089557FD9058440F551FA6
:1040E00059F05F3F71F04795880F97FB991F61F07A
:1040F0009F3F79F087950895121613061406551FF1
:10410000F2CF4695F1DF08C0161617061806991F5C
:10411000F1CF86957105610508940895E894BB2751
:1041200066277727CB0197F90895F999FECF92BDBD
:1041300081BDF89A992780B50895262FF999FECF69
:104140001FBA92BD81BD20BD0FB6F894FA9AF99AB4
:104150000FBE019608952F923F924F925F926F92F9
:104160007F928F929F92AF92BF92CF92DF92EF9207
:10417000FF920F931F93CF93DF93CDB7DEB7CA1B88
:10418000DB0B0FB6F894DEBF0FBECDBF09942A88B3
:10419000398848885F846E847D848C849B84AA845B
:1041A000B984C884DF80EE80FD800C811B81AA81E8
:1041B000B981CE0FD11D0FB6F894DEBF0FBECDBFB3
:1041C000ED0108950E94F6200C945B200E9454207B
:1041D00058F00E944D2040F029F45F3F29F00C94E4
:1041E000442051110C948F200C944A200E946C2082
:1041F00068F39923B1F3552391F3951B550BBB2716
:10420000AA2762177307840738F09F5F5F4F220F5A
:10421000331F441FAA1FA9F335D00E2E3AF0E0E851
:1042200032D091505040E695001CCAF72BD0FE2F9B
:1042300029D0660F771F881FBB1F2617370748072F
:10424000AB07B0E809F0BB0B802DBF01FF279358E7
:104250005F4F3AF09E3F510578F00C9444200C9447
:104260008F205F3FE4F3983ED4F38695779567956A
:10427000B795F7959F5FC9F7880F911D969587951C
:1042800097F90895E1E0660F771F881FBB1F62173B
:1042900073078407BA0720F0621B730B840BBA0BF9
:1042A000EE1F88F7E09508950E945B216894B11194
:1042B0000C948F2008950E94742088F09F5798F0E6
:1042C000B92F9927B751B0F0E1F0660F771F881F1B
:1042D000991F1AF0BA95C9F714C0B13091F00E9435
:1042E0008E20B1E008950C948E20672F782F8827B8
:1042F000B85F39F0B93FCCF3869577956795B3955C
:10430000D9F73EF490958095709561957F4F8F4FCA
:104310009F4F0895FA01EE0FFF1F309621053105DA
:10432000A1F16115710561F48038BFE39B0749F184
:1043300068949038810561F08038BFEF9B0741F0A9
:1043400099234AF5FF3FE1053105210519F1E8946C
:104350000894E795D901AA2329F4AB2FBE2FF85F63
:10436000D0F310C0FF5F70F4A695E0F7F73950F076
:1043700019F0FF3A38F49F779F930DD00F9007FC08
:104380009058089546F00C944A2060E070E080E870
:104390009FE308954FE79F775F934F933F932F934A
:1043A0000E9485222F913F914F915F910E94D71FCC
:1043B0000C94E22129F416F00C9444200C948E20E5
:1043C0000C944A200E947420A8F39638A0F707F8AE
:1043D0000F92E8942BE33AEA48EB5FE70E94ED1F67
:1043E0000F920F920F924DB75EB70F920E94CD229F
:1043F000ECEAF0E00E9414224F915F91EF91FF915F
:10440000E595EE1FFF1F49F0FE57E0684427EE0FC9
:10441000441FFA95E1F74195550B0E9447220F90F2
:1044200007FE0C943B220895DF93CF931F930F93C5
:10443000FF92EF92DF927B018C01689406C0DA2E26
:10444000EF010E94EA1FFE01E894A59125913591A4
:1044500045915591A6F3EF010E941923FE019701A2
:10446000A801DA9469F7DF90EF90FF900F911F9108
:10447000CF91DF9108959B01AC0160E070E080E88E
:104480009FE30C94E2200C9444200C946E230E9431
:104490007420D8F39923C9F3940F511DA3F39150BD
:1044A000504094F059F0882332F0660F771F881F30
:1044B00091505040C1F79E3F51052CF7880F911D38
:1044C0009695879597F908955F3FACF0983E9CF0DC
:1044D000BB27869577956795B79508F4B160939556
:1044E000C1F7BB0F58F711F460FFE8CF6F5F7F4F44
:1044F0008F4F9F4FE3CF0C948F2016F00C946E23B8
:104500000C944A2068940C9444200E947420A8F3D0
:104510009923C1F3AEF3DF93CF931F930F93FF92D1
:10452000C92FDD2788232AF02197660F771F881F60
:10453000DAF720E030E040E85FEB9FE3883920F0D5
:10454000803E38F021968F770E940223E4EDF0E060
:1045500004C00E940223E1E0F1E00E9414228B01DA
:10456000BE01EC01FB2E6F5771097595771F880B03
:10457000990B0E949C1F28E132E741E35FE30E9410
:10458000EA1FAF2D9801AE01FF900F911F91CF91BF
:10459000DF910E9419230C945B20FA01DC01AA0F21
:1045A000BB1F9B01AC01BF5728F4222733274427A8
:1045B000507820C0B75190F4AB2F00244695379522
:1045C0002795011CA395D2F3002071F0220F331F11
:1045D000441FB395DAF30ED00C94012361307105BA
:1045E000A0E88A07B94630F49B01AC01662777271B
:1045F00088279078309621F020833183428353833B
:1046000008955058BB27AA270E9419230C945B20B9
:104610000E944D2038F00E94542020F039F49F3F32
:1046200019F426F40C944A200EF4E095E7FB0C9460
:104630004420E92F0E946C2058F3BA1762077307D1
:104640008407950720F079F4A6F50C948E200EF4DB
:10465000E0950B2EBA2FA02D0B01B90190010C0192
:10466000CA01A0011124FF27591B99F0593F50F4AA
:10467000503E68F11A16F040A22F232F342F442702
:10468000585FF3CF469537952795A795F0405395FA
:10469000C9F77EF41F16BA0B620B730B840BBAF0CA
:1046A0009150A1F0FF0FBB1F661F771F881FC2F735
:1046B0000EC0BA0F621F731F841F48F48795779549
:1046C0006795B795F7959E3F08F0B0CF9395880F03
:1046D00008F09927EE0F9795879508959F3F31F041
:1046E000915020F4879577956795B795880F911D20
:1046F0009695879597F90895AA1BBB1B51E107C0B2
:10470000AA1FBB1FA617B70710F0A61BB70B881F61
:10471000991F5A95A9F780959095BC01CD010895F0
:1047200097FB072E16F4009407D077FD09D00E945E
:104730007C2307FC05D03EF4909581959F4F08950A
:10474000709561957F4F0895EE0FFF1F0590F491CE
:10475000E02D09940F931F93CF93DF93823091053F
:1047600010F482E090E0E091BB04F091BC0430E0F2
:1047700020E0B0E0A0E0309799F42115310509F46C
:104780004AC0281B390B24303105D8F58A819B811A
:104790006115710589F1FB0193838283FE0111C0CC
:1047A000408151810281138148175907E0F0481771
:1047B000590799F4109761F012960C93129713967B
:1047C0001C933296CF01DF91CF911F910F910895E5
:1047D0000093BB041093BC04F4CF2115310551F0B4
:1047E0004217530738F0A901DB019A01BD01DF012F
:1047F000F801C1CFEF01F9CF9093BC048093BB04C3
:10480000CDCFFE01E20FF31F819391932250310926
:1048100039832883D7CF2091B9043091BA04232B50
:1048200041F420913001309131013093BA0420934A
:10483000B90420912E0130912F012115310541F449
:104840002DB73EB74091320150913301241B350BF7
:10485000E091B904F091BA04E217F307A0F42E1B1B
:104860003F0B2817390778F0AC014E5F5F4F2417D4
:10487000350748F04E0F5F1F5093BA044093B904B8
:10488000819391939FCFF0E0E0E09CCFCF93DF93B3
:104890000097E9F0FC01329713821282A091BB04C9
:1048A000B091BC04ED0130E020E01097A1F420812C
:1048B0003181820F931F2091B9043091BA042817D7
:1048C000390709F061C0F093BA04E093B904DF91AD
:1048D000CF910895EA01CE17DF07E8F54A815B81A1
:1048E0009E0141155105B1F7E901FB83EA83499126
:1048F0005991C40FD51FEC17FD0761F48081918198
:104900000296840F951FE9019983888382819381A0
:104910009B838A83F0E0E0E012968D919C9113973F
:104920000097B9F52D913C911197CD010296820F18
:10493000931F2091B9043091BA042817390739F62A
:10494000309751F51092BC041092BB04B093BA0496
:10495000A093B904BCCFD383C28340815181840F1B
:10496000951FC817D90761F44E5F5F4F8881998101
:10497000480F591F518340838A819B81938382838F
:104980002115310509F0B0CFF093BC04E093BB04CE
:104990009ECFFD01DC01C0CF13821282D7CFB0E0E1
:1049A000A0E0E5EDF4E20C94AD208C01009751F409
:1049B000CB010E94AA238C01C801CDB7DEB7E0E18C
:1049C0000C94C920FC01E60FF71F9C01225031090D
:1049D000E217F30708F49DC0D901CD91DC9111973E
:1049E000C617D70798F0C530D10530F3CE0104972C
:1049F0008617970708F3C61BD70B2297C193D1934D
:104A00006D937C93CF010E944624D6CF5B01AC1AF4
:104A1000BD0A4C018C0E9D1EA091BB04B091BC043C
:104A2000512C412CF12CE12C109731F58091B904D7
:104A30009091BA048815990509F05CC0461657068E
:104A400008F058C080912E0190912F01009741F4F9
:104A50008DB79EB74091320150913301841B950B65
:104A6000E817F90708F055C0F093BA04E093B904C9
:104A7000F90171836083A0CF8D919C91119712965B
:104A80006C90129713967C901397A815B90559F559
:104A90006C0142E0C40ED11CCA14DB0420F1AC014D
:104AA0004A195B09DA011296159780F062827382C7
:104AB00051834083D9016D937C93E114F10471F02B
:104AC000D7011396FC93EE93129776CF22968C0F14
:104AD0009D1FF90191838083F301EFCFF093BC0414
:104AE000E093BB0469CF4816590608F42C017D01F8
:104AF000D3019ACFCB010E94AA237C01009749F0F1
:104B0000AE01B8010E948C25C8010E94462487018D
:104B100053CF10E000E050CFFB01DC0102C0019058
:104B20000D9241505040D8F70895DC0101C06D93BB
:104B300041505040E0F70895FB01DC0101900D92D7
:104B40000020E1F7089512E0C6E0D2E004C0FE01C3
:104B50000E94A4232196C730D107C9F7F894FFCF4C
:104B600000C18081000000FFFFFFFFF805F805F895
:104B700005F805F80500E1000000000000FE011145
:104B8000FF010000000000000000008000000000A5
:104B9000BD048000000000004906F706BC06A1061F
:104BA00060313233343536373839302D3DB2B37158
:104BB000776572747975696F705B5DD4C161736478
:104BC0006667686A6B6C3B275CB0B17A7863766223
:104BD0006E6D2C2E2FDA85D2C2C3C4C5C6202086A6
:104BE0008487D8D9D7D57E21402324255E262A283C
:104BF000295F2BB2B371776572747975696F707BB9
:104C00007DD4C16173646667686A6B6C3A227CB05C
:104C1000B17A786376626E6D3C3E3FDA85D2C2C36C
:104C2000C4C5C62020868487D8D9D7D50D121314C1
:104C300015010002030B0A0908060C041E000000FF
:104C40000054039B0575036A03BC037A03980300B1
:104C50000000009A08D107B00848060D0A007072DB
:104C600065737320636170733A002C7374726F6B99
:104C7000653A00746F7563686564006C6F6E6750A9
:104C80007265737300646F75626C65436C69636B06
:104C9000006D617820783A000D0A6D696E20783ACF
:104CA000006D617820793A000D0A6D696E20793ABD
:104CB0000078526174696F3A0079526174696F3A91
:104CC000006C6173742072656C656173653A002CC9
:104CD0006C61737420746F7563683A00646F7562F9
:104CE0006C65636C69636B2C696E74657276616C5C
:104CF0003A006C617374207374617465303A002CEF
:104D00006C617374207374617465313A006C6F6EFA
:104D1000677072657373006D61782078203A006D5A
:104D2000696E2078203A006D61782079203A006D14
:104D3000696E2079203A006D6178002D2D2D2D2D82
:0E4D40002D2D2D2D2D72656C6561736564003F
:00000001FF
