:100000000C9407020C9429100C9402100C94DB0F32
:100010000C94B40F0C942F020C942F020C948D0F9F
:100020000C942F020C942F020C94A20C0C94110D22
:100030000C942F020C942F020C942F020C942F027C
:100040000C942F020C942F020C942F020C942F026C
:100050000C942F020C942F020C942F020C94430F3B
:100060000C942F020C942F020C942F020C942F024C
:100070000C942F020C942F020C942F020C942F023C
:100080000C942F020C942F020C942F020C942F022C
:100090000C942F020C942F020C942F020C942F021C
:1000A0000C942F020C942F020C942F0207634236FB
:1000B000B79BD8A71A39685618AEBAAB558C1D3CF9
:1000C000B7CC5763BD6DEDFD753EF6177231BF00BD
:1000D0000000803F08000000BE922449123EABAAF7
:1000E000AA2ABECDCCCC4C3E00000080BEABAAAA52
:1000F000AA3E00000000BF000000803F000000009A
:1001000000084178D3BB4387D1133D190E3CC3BDD2
:100110004282AD2B3E68EC8276BED98FE1A93E4C7F
:1001200080EFFFBE01C4FF7F3F00000000000040E1
:100130007A10F35A00A0724E18090010A5D4E800F6
:1001400000E87648170000E40B54020000CA9A3B0E
:10015000000000E1F5050000809698000000404294
:100160000F000000A0860100000010270000000022
:10017000E803000000006400000000000A00000026
:1001800000000100000000002C76D888DC674F08D2
:1001900023DFC1DFAE59E1B1B796E5E3E453C63AD8
:1001A000E651997696E8E6C28426EB898C9B62ED4F
:1001B000407C6FFCEFBC9C9F40F2BAA56FA5F49009
:1001C000055A2AF75C936B6CF9676DC11BFCE0E480
:1001D0000D47FEF520E6B500D0ED902E03009435D6
:1001E00077050080841E080000204E0A000000C829
:1001F0000C333333330F986E12831141EF8D21147A
:10020000893BE65516CFFEE6DB18D1844B381BF749
:100210007C1D901DA4BBE424203284725E228100E8
:10022000C9F124ECA1E53D2700000000000000001A
:100230002A2B280000000000000000000000000041
:1002400000000000000000002C9EB4A0A1A2A43475
:10025000A6A7A5AE362D3738271E1F20212223241E
:100260002526B333B62EB7B89F8485868788898ABA
:100270008B8C8D8E8F909192939495969798999A56
:100280009B9C9D2F3130A3AD350405060708090A54
:100290000B0C0D0E0F101112131415161718191A36
:1002A0001B1C1DAFB1B0B5000000000023002600EC
:1002B00029002C002F000000000200090F0000039D
:1002C0000401000C0000000000000000000000001D
:1002D0000000000000080B000202020000090400F8
:1002E00000010202000005240010010524010101A3
:1002F00004240206052406000107058103100040BE
:1003000009040100020A0000000705020240000083
:10031000070583024000000403090412010002EFF4
:100320000201404123368000010102030141726451
:1003300075696E6F204C4C430041726475696E6F35
:10034000204C656F6E6172646F0000000000240035
:1003500027002A002D00300005010902A101090132
:10036000A10085010509190129031500250195033F
:100370007501810295017505810305010930093177
:1003800009381581257F750895038106C0C00501D0
:100390000906A1018502050719E029E715002501D5
:1003A0007501950881029501750881039506750808
:1003B000150025730507190029738100C004080280
:1003C00001104080401020408040800802040180DD
:1003D000402010020110801020404020000000004A
:1003E000250028002B002E0031000404040404031F
:1003F00004050202020204030202020206060606C5
:1004000006060404020202040400B010481C112471
:100410001FBECFEFDAE0DEBFCDBF24E0AAEDB2E031
:1004200001C01D92A93AB207E1F712E0A0E0B1E0E5
:10043000E4E5FAE402C005900D92AA3DB107D9F7B0
:1004400012E0C6E0D2E004C02197FE010E941E2304
:10045000C530D107C9F70E945B120C941D250C947E
:10046000000020919704222341F0629FB0011124E3
:10047000672F249FA0011124452FE0919D04209116
:1004800098043091990450919A04E5131AC0FC0124
:10049000EE0FFF1F8E0F9F1F820F931FE0919A0494
:1004A000E80FF92FF11D6083E0919B04E80FF92F0D
:1004B000F11D408320919C04820F911DFC0110824C
:1004C0000895880F991F880F991F820F931FE80FB7
:1004D000F92FF11D1082E2CFFC0180916703882380
:1004E00011F13FB7F89482E08093E9002091F20087
:1004F000822F90E01816190614F481E090E088230A
:1005000039F0289844E6409366034091F100408317
:10051000222339F02091F200211103C02BE6209311
:10052000E8003FBF08958FEF9FEF0895E091170314
:10053000F091180381E08083089540911003509159
:10054000110320910E0330910F0342175307B4F4A7
:100550009091E8009570E1F39091E80092FD19C048
:100560008093F100809110039091110301968F7395
:100570009927892B19F48EEF8093E800809110035E
:10058000909111030196909311038093100381E0E1
:10059000089580E00895DF92EF92FF920F931F93EA
:1005A000CF93DF93D82E8A01EB017B01E40EF51E79
:1005B000CE15DF0559F0D7FE12C0FE0184910E94CE
:1005C0009D0221968111F4CF0FEF1FEFC801DF913B
:1005D000CF911F910F91FF90EF90DF900895888148
:1005E000EECF2FB7F89487708093E9009091E800E0
:1005F000892F807295FF04C09091F20080E4891BDE
:100600002FBF0895615030F02091F100FC0120834C
:100610000196F8CF289884E6809366030895809128
:10062000060381110DC082E08093020384E0809371
:100630000303109205031092040381E080930603E4
:1006400082E093E008950F931F93CF93DF931F925F
:10065000CDB7DEB782E0898342E450E065ED72E019
:1006600080E80E94CB020E940F03DC0112960D91DC
:100670001C910115110589F0D801ED91FC910280C2
:10068000F381E02DBE016F5F7F4FC801099597FD93
:1006900004C0F80100851185ECCF89810F90DF91AE
:1006A000CF911F910F910895CF93DF931F92CDB7F4
:1006B000DEB76983DC01ED91FC910280F381E02DCE
:1006C00041E050E0BE016F5F7F4F09950F90DF91D1
:1006D000CF91089583E08093E9008091F200882310
:1006E00019F08AE38093E800089583E00E94F10204
:1006F00090E00895CF93DF931F92CDB7DEB7FC0152
:100700008485958597FD08C02FEF3FEF35872487B7
:100710000F90DF91CF910895CE0101960E946C0257
:10072000019719F4898190E0F3CF8FEF9FEFF0CF1D
:100730000F931F93CF93DF931F92CDB7DEB78C013A
:10074000FC018485958597FF0BC0CE0101960E9420
:100750006C02019771F4898190E0F8019587848794
:10076000F801848595850F90DF91CF911F910F91AE
:1007700008958FEF9FEFF1CFFC018485958597FD5C
:100780000BC09FB7F89482E08093E9008091F2005B
:100790009FBF90E0019608959FB7F89482E0809300
:1007A000E9008091F2009FBF90E0089581508F3062
:1007B00008F047C0E82FF0E0E052FC4F0C941E23F5
:1007C000FD030104EF03F503F903210421042104CF
:1007D00004040A040E041204180421041C04809169
:1007E00080008F77809380000895809180008F7DB6
:1007F000F9CF80918000877FF5CF84B58F7784BD56
:10080000089584B58F7DFBCF809190008F77809382
:1008100090000895809190008F7DF9CF8091900095
:10082000877FF5CF8091C0008F778093C0000895B7
:100830008091C0008F7DF9CF8091C200877F809327
:10084000C2000895CF93DF93282F30E0F901EA54D6
:10085000FD4F8491F901E354FC4FD491F901E65125
:10086000FC4FC491CC23A1F081110E94D603EC2F40
:10087000F0E0EE0FFF1FE855FD4FA591B491EC910C
:10088000ED2381E090E009F480E0DF91CF910895BD
:1008900080E090E0FACF1F93CF93DF93282F30E0D2
:1008A000F901EA54FD4F8491F901E354FC4FD491CE
:1008B000F901E651FC4FC491CC23A9F0162F811108
:1008C0000E94D603EC2FF0E0EE0FFF1FE452FC4F26
:1008D000A591B4918FB7F894EC91111108C0D095FF
:1008E000DE23DC938FBFDF91CF911F910895DE2B24
:1008F000F8CFCF93DF9390E0FC01E354FC4F2491B9
:1009000086519C4FFC0184918823D1F090E0880FA0
:10091000991FFC01E65BFC4FA591B491FC01E452E8
:10092000FC4FC591D49161110EC09FB7F8948C9182
:10093000E22FE0958E238C932881E223E8839FBFEA
:10094000DF91CF9108958FB7F894EC91E22BEC935F
:100950008FBFF6CF3FB7F8948091FE029091FF02CF
:10096000A0910003B091010326B5A89B05C02F3FBD
:1009700019F00196A11DB11D3FBFBA2FA92F982FC5
:100980008827BC01CD01620F711D811D911D42E0C0
:10099000660F771F881F991F4A95D1F708958F9288
:1009A0009F92AF92BF92CF92DF92EF92FF924B0154
:1009B0005C010E94AA046B017C010E94AA046C19CC
:1009C0007D098E099F09683E734081059105A8F352
:1009D00021E0821A9108A108B10888EEC80E83E0D0
:1009E000D81EE11CF11C81149104A104B10429F763
:1009F000FF90EF90DF90CF90BF90AF909F908F903F
:100A000008957F928F929F92AF92BF92CF92DF9282
:100A1000EF92FF920F931F93CF93DF93C82E8B011A
:100A20007A0180916703811110C08FEF9FEFDF91F2
:100A3000CF911F910F91FF90EF90DF90CF90BF90DB
:100A4000AF909F908F907F9008958091140380FFC6
:100A500005C08091E00082608093E000CE2DDF2D04
:100A6000D12C8AEFB82E8C2D8770982E8C2D807209
:100A7000882E8C2D8074782E9AE3A92E209719F455
:100A8000DD2009F452C08C2D0E94F10281110AC0B0
:100A9000BA94BB2051F261E070E080E090E00E94E7
:100AA000CF04ECCF8C171D0611F00CF08C2F9FB7E4
:100AB000F8949092E9002091E80025FD02C09FBFC4
:100AC000DDCF282F30E0C21BD30B882029F08150C6
:100AD000A0F01092F100FBCFF801C7FC0AC08150D2
:100AE00050F041914093F100FACF44914093F100CE
:100AF00031968150D0F7020F131FDD2021F0A09214
:100B0000E800D12CDCCF8091E80085FD07C0A092E1
:100B1000E800DD24D394209791F2F3CF209779F663
:100B2000772069F2A092E800CACF5D9884E68093AE
:100B30001303C7017CCFCF93DF93EC0180911C019D
:100B4000882331F083E00E9401051816190634F05D
:100B500081E090E09B838A8380E090E0DF91CF91F9
:100B60000895FC01448155816081718189E693E09B
:100B70000C949B052FB7F8946091FA027091FB02D8
:100B80008091FC029091FD022FBF08950F931F9357
:100B90000E94BA056093710370937203809373038C
:100BA0009093740389E693E00E947A0397FF1DC037
:100BB0000E94BA0500917103109172032091730392
:100BC00030917403601B710B820B930B00916D03CA
:100BD00010916E0320916F033091700360177107BD
:100BE00082079307F8F28FEF9FEF1F910F910895FF
:100BF0000895FC01E61BF70B681779071CF0FB0151
:100C0000E81BF90B9C01241B350B481759071CF0F6
:100C10009A01281B390BDA01A61BB70B641775075D
:100C20001CF0DB01A41BB50B2E173F075CF0AE17C1
:100C3000BF072CF0860F971F959587950895E217AB
:100C4000F3072CF0840F951FA217B307ACF7640FBE
:100C5000751FCB01F1CF0CB405FC0DC09EBD00008B
:100C60000DB407FEFDCF9EB58EBD00000DB407FE8E
:100C7000FDCF8EB508958EBD00000DB407FEFDCFEB
:100C80008EB59EBD00000DB407FEFDCF9EB5089544
:100C90000895DC01FB0112962C91129784819581B5
:100CA0002817190641F491818081813A31F49D7FA2
:100CB00081E0913009F080E008958132E1F79B30C6
:100CC00029F482811F968C9381E008959A3099F7D8
:100CD000828150968C93F8CFAF92BF92CF92DF92E1
:100CE000EF92FF920F931F93CF93DF931F92CDB795
:100CF000DEB77C0169836A01590141E050E0BE0121
:100D00006F5F7F4FFC0183810E9401058C0197FD7D
:100D10000BC0F7018381A501B60180640E94010523
:100D2000080F191F97FD8C01C8010F90DF91CF911B
:100D30001F910F91FF90EF90DF90CF90BF90AF90F9
:100D40000895DC01FB0188E4808389E4818384E4E5
:100D500082831D969C911D979F709F5B93831D9628
:100D60008D919C9124E0969587952A95E1F78F7057
:100D70008F5B848385E00895EF92FF920F931F931A
:100D8000CF93DF93FB012081213871F5238122323B
:100D900059F5DC0112964C912481358142171306D6
:100DA00019F5EC010B851C85F12CE12C01151105C1
:100DB00089F0F801448155816281738180E80E9445
:100DC000CB028F3F980749F0E80EF91ED8010D912C
:100DD0001C91ECCF81E08F87C701DF91CF911F91EC
:100DE0000F91FF90EF90089590E080E0F6CFCF93C1
:100DF000DF93CDB7DEB769970FB6F894DEBF0FBEAD
:100E0000CDBFFC01DB018C918F5F8C939E012D5F28
:100E10003F4F8DE0D9011D928A95E9F729E029839A
:100E200084E08A8391E09D8383E08E832A8721E298
:100E30002B879C879D879F8722E2288B27E02B8B1F
:100E400025E02C8B8E8B20E430E0388F2F8B998F10
:100E500082818B8395858685998B8A8B8381806837
:100E60008D8B49E150E0BE016F5F7F4F80E00E94B3
:100E7000CB0269960FB6F894DEBF0FBECDBFDF91EF
:100E8000CF910895CF93DF938091EB02811167C0DA
:100E900081E08093DE028093DF0224EE32E0309323
:100EA000E1022093E0021092E3021092E20228E3B2
:100EB00031E03093DB022093DA021092E6021092C6
:100EC000E5021092E8021092E7028093E902809313
:100ED000EA0281EC8093E4020E940F03FC0181810D
:100EE0009091DE02482F490F5527551F4830510574
:100EF0009CF5A281B381109709F52AED32E0338386
:100F0000228320812093DC028093DD028091DF0226
:100F1000820F80832091E002A22FB091E1028A2FFC
:100F2000821B8917C8F481813D91C82FD0E0C05041
:100F3000DF4F38838F5F8183F2CFD90118962D91CF
:100F40003C91199721153105C1F72AED32E0199628
:100F50003C932E931897D5CF81E08093EB028AEDD6
:100F600092E0DF91CF910895CF93DF9300D000D02E
:100F7000CDB7DEB79091C70399838A836B831C82B8
:100F80000E94420724E030E0AE014F5F5F4F61E016
:100F90000E946C060F900F900F900F90DF91CF91F1
:100FA0000895CF92DF92EF92FF920F931F93CF930A
:100FB000DF936C01EB017B01E40EF51E10E000E015
:100FC000CE15DF0581F069916D30D1F3D601ED9139
:100FD000FC910190F081E02DC6010995892B19F053
:100FE0000F5F1F4FEDCFC801DF91CF911F910F9180
:100FF000FF90EF90DF90CF900895CF93DF93EC01B7
:101000006838E0F06858FE0186E0662321F096819A
:10101000961301C01682815031968111F6CF0E943D
:101020004207AE014C5F5F4F28E030E062E00E9473
:101030006C0681E090E0DF91CF910895E62FF0E01B
:1010400067FF0EC0E058F10981E090E001C0880F11
:10105000EA95EAF780959C8189238C8360E0D3CF61
:10106000E85DFD4F649190E080E0662321F367FF27
:10107000CACF8C818D7F8C836F77C5CFCF93DF9361
:10108000EC01683858F168588E818617D1F08F814D
:101090008617B9F088858617A1F08985861789F0AB
:1010A0008A85861771F08B85861759F0FE01369672
:1010B00090E080E02191211137C08C0F9D1FFC0131
:1010C00066830E944207AE014C5F5F4F28E030E02C
:1010D00062E00E946C0681E090E01CC0E62FF0E028
:1010E00067FF0DC0E058F10921E030E001C0220F98
:1010F000EA95EAF78C81822B8C8360E0C5CFE85DAE
:10110000FD4F6491611109C081E090E09B838A8367
:1011100090E080E0DF91CF91089567FFB5CF8C819B
:1011200082608C836F77B0CF01968630910509F08D
:10113000C1CFEACFEF92FF921F93CF93DF93EC01E1
:10114000162F0E943E087C01612FCE010E94FD07F0
:10115000C7019927DF91CF911F91FF90EF900895DC
:1011600090E080E008958FB7F894809168038FBF76
:101170000895FF920F931F93CF93DF93811118C0AF
:101180006230B1F490913703913061F480911A0389
:10119000892780931A0361EC86ED93E00E94FD0796
:1011A00010923703DF91CF911F910F91FF90089517
:1011B000082F10E0C62FD0E08EE0689FB001112408
:1011C000FB01E55EFC4FE00FF11F8081F0901D01F7
:1011D000F81618F481508083E5CF8F11E3CF80910A
:1011E0001A038823C1F0605C7E4FFB01E00FF11F02
:1011F000608186ED93E00E94FD072EE02C9FC001E8
:101200002D9F900D1124855E9C4F080F191FFA9495
:10121000F801F082C7CF6A577E4FE7CF8EBD00003E
:101220000DB407FEFDCF8EB508952F923F924F92D9
:101230005F926F927F928F929F92AF92BF92CF9266
:10124000DF92EF92FF920F931F93CF93DF938091E2
:10125000E203882309F4A4C00E94BA052B013C01D3
:101260008091EC039091ED03A091EE03B091EF0318
:10127000A3019201281B390B4A0B5B0BDA01C90150
:101280000397A105B10508F48BC08091F0039091FC
:10129000F103892B09F484C081E58CBD81E08DBD0B
:1012A00060E08091E3030E944B0481EB0E940E09F1
:1012B00081EC90E00E942B06EC0163E0D695C79587
:1012C0006A95E1F7C150D04F81E990E00E942B066A
:1012D00073E0969587957A95E1F7C81BD90BC039CD
:1012E00031E0D3070CF448C081E990E00E942B065E
:1012F00081ED90E00E942B066C0123E0D694C79408
:101300002A95E1F781E990E00E942B067C0133E009
:10131000F694E7943A95E1F781ED90E00E942B0670
:101320005C0143E0B694A7944A95E1F781E990E027
:101330000E942B064C0153E0969487945A95E1F74E
:1013400080ED90E00E942B068C0190E080E00E94EE
:101350002B061C0161E08091E3030E944B04D7FF40
:1013600014C01092EB031092EA038091E4038F3FC4
:10137000B9F01092E20314C0912C812CB12CA12C55
:10138000F12CE12CD12CC12CDBCFC03941E0D407AA
:10139000D4F41092EB031092EA03CB34D1052CF372
:1013A000DF91CF911F910F91FF90EF90DF90CF9041
:1013B000BF90AF909F908F907F906F905F904F9075
:1013C0003F902F900895D093EB03C093EA03A801B8
:1013D00083E0569547958A95E1F7B501C6010E94CD
:1013E000F905EC01A10193E0569547959A95E1F72F
:1013F000B401C7010E94F9054092EC035092ED033D
:101400006092EE037092EF032091E503213001F129
:1014100090F0223031F12FEF3FE0A9014C1B5D0B22
:101420005093E7034093E603281B390B3093E903FD
:101430002093E803B5CF2FEF3FE0281B390B309303
:10144000E7032093E603D093E903C093E803A8CF12
:10145000D093E703C093E6039093E9038093E803F6
:101460009FCF9093E7038093E6038FEF9FE08C1B61
:101470009D0BF2CFCF93DF93EC0188819981009788
:1014800011F00E94C023198218821D821C821B82C7
:101490001A82DF91CF910895FC018081918100979C
:1014A00011F00C94C023089542E050E06BEF71E01E
:1014B00089E693E00C949B05CF93DF930E94B105DE
:1014C000EC010E94540A8C0F9D1FDF91CF9108956B
:1014D000CF93DF93FC0101900020E9F73197AF0132
:1014E000481B590BBC0189E693E00E949B05EC0167
:1014F0000E94540A8C0F9D1FDF91CF9108950F9386
:101500001F93CF93DF93EC0188819981009759F065
:101510002A813B812617370730F081E0DF91CF9198
:101520001F910F9108958B016F5F7F4F0E94492497
:10153000009759F0998388831B830A832C813D810E
:10154000232B59F7FC011082E8CF80E0E7CFEF9220
:10155000FF920F931F93CF93DF938C017B01EB01DD
:1015600009900020E9F72197C61BD70BBE010E9406
:101570007F0A811109C0C801DF91CF911F910F919E
:10158000FF90EF900C943A0AF801D583C483B70119
:1015900080819181DF91CF911F910F91FF90EF900A
:1015A0000C941625EF92FF920F931F93CF93DF9326
:1015B000CDB7DEB7A1970FB6F894DEBF0FBECDBF93
:1015C0007C01CB01BA01F7011182108213821282D1
:1015D000158214828E010F5F1F4F22E044E00E94AB
:1015E000681C009789F0BC01C7010E94A70AA19658
:1015F0000FB6F894DEBF0FBECDBFDF91CF911F9124
:101600000F91FF90EF900895C7010E943A0AEFCF23
:101610000F931F93CF93DF93CDB7DEB761970FB6CC
:10162000F894DEBF0FBECDBF8C01CB01F801118253
:10163000108213821282158214824AE0BE016F5F0B
:101640007F4F0E94B31CBE016F5F7F4FC8010E9495
:10165000A70A61960FB6F894DEBF0FBECDBFDF912B
:10166000CF911F910F9108950F931F93CF93DF9305
:10167000CDB7DEB762970FB6F894DEBF0FBECDBF11
:101680008C01CB01F8011182108213821282158223
:1016900014824AE0BE016F5F7F4F0E94861CBE012C
:1016A0006F5F7F4FC8010E94A70A62960FB6F89439
:1016B000DEBF0FBECDBFDF91CF911F910F91089577
:1016C000EF92FF920F931F93CF93DF9361157105F4
:1016D00041F480E0DF91CF911F910F91FF90EF9047
:1016E000089541155105B1F07B01EC010C811D817C
:1016F000040F151FB8010E947F0A882351F3288127
:1017000039818C819D81B701820F931F0E9416251C
:101710001D830C8381E0DECFCF93DF93EC01FB01CF
:1017200001900020E9F73197AF01461B570B0E944B
:10173000600B811103C0CE010E943A0ACE01DF91F5
:10174000CF910895CF93DF93EC01FB014481558144
:10175000608171810E94600B811103C0CE010E94E3
:101760003A0ACE01DF91CF910895EF92FF920F9345
:101770001F93CF93DF93EC017B01198218821B82A8
:101780001A821D821C82FB0101900020E9F731972B
:101790008F01061B170BB8010E947F0A811109C037
:1017A000CE01DF91CF911F910F91FF90EF900C949C
:1017B0003A0A1D830C83B70188819981DF91CF910B
:1017C0001F910F91FF90EF900C941625CF92DF920E
:1017D000EF92FF920F931F93CF93DF9300D000D02F
:1017E00000D0CDB7DEB78C016330710509F453C06A
:1017F00030E020E0E3E0F0E0633071053CF02F5F83
:101800003F4FCB01BF010E940A23F6CFB9016150BF
:101810007109072E000C880B990B0E94161F9B0163
:10182000AC0160E070E080E490E40E9404210E943A
:10183000CE206B01C8010E94E60B9A838983C60102
:101840009927880F991FB601800F911F0E94E60B00
:101850009C838B838C2D880F90E0880F991FB60195
:10186000800F911F0E94E60B9E838D8363E070E0E2
:10187000CE0101960E94E60B26960FB6F894DEBFC5
:101880000FBECDBFDF91CF911F910F91FF90EF90D1
:10189000DF90CF900895DC018D919C911197129665
:1018A000ED90FC9013971496ED91FC91BC016E198C
:1018B0007F0977FF03C07195619571097093F402F8
:1018C0006093F302A7014E1B5F0B57FF03C05195B6
:1018D000419551095093F6024093F5029F01281B50
:1018E000390B37FF03C03195219531093093F80248
:1018F0002093F7026417750744F4621773074CF4DA
:101900008E0D9F1D95958795B7CF421753070CF401
:10191000C7018E0F9F1FF6CF1F93CF93DF93EC016C
:10192000162F0E940F20181739F0612FCE01DF917A
:10193000CF911F910C941720DF91CF911F910895A3
:101940000C940F201F920F920FB60F9211248F93B9
:101950009F938091E1009091E100937F9093E1004B
:1019600083FF0FC01092E90091E09093EB0010927A
:10197000EC0092E39093ED001092670398E090934F
:10198000F00082FF22C093E09093E9009091F20072
:10199000992319F09AE39093E80090911303992307
:1019A00041F090911303915090931303911101C052
:1019B0005D9A90916603992341F09091660391504E
:1019C00090936603911101C0289A84FF18C08091FA
:1019D000E2008E7E81608093E2008091E1008F7E44
:1019E0008093E100809114038E7E806180931403C4
:1019F0009F918F910F900FBE0F901F90189580FFB1
:101A0000F7CF8091E2008E7E80618093E20080912A
:101A1000E1008E7E8093E100809114038E7E8160D0
:101A2000E5CF1F920F920FB60F921124CF92DF9243
:101A3000EF92FF920F931F932F933F934F935F93D8
:101A40006F937F938F939F93AF93BF93EF93FF9386
:101A5000CF93DF93CDB7DEB76C97DEBFCDBF1092CB
:101A6000E9008091E80083FF25C068E0CE0145963B
:101A70000E94020382EF8093E8008D8987FF39C0BE
:101A80009091E80090FFFCCF982F907609F034C138
:101A90009E894F89588D2F89F88C911131C08038DB
:101AA00061F5809115038093F1001092F1008EEFA3
:101AB0008093E8006C960FB6F894DEBF0FBECDBFE2
:101AC000DF91CF91FF91EF91BF91AF919F918F9156
:101AD0007F916F915F914F913F912F911F910F9146
:101AE000FF90EF90DF90CF900F900FBE0F901F9060
:101AF00018959EEF9093E800C7CF1092F100D5CFD4
:101B0000913059F48111D3CF4130510581F6809144
:101B100015038D7F80931503CACF933049F481114B
:101B2000C6CF4130510519F6809115038260F2CF7E
:101B3000953041F48091E80080FFFCCF206820932D
:101B4000E300B5CF963009F0A9C00B8D1C8D22E0C3
:101B50001092E9001092110310921003F2122EC09D
:101B600010920F0310920E030E9423031F8299E02C
:101B70009983FA8291E09E8390EA98879AEF9987F9
:101B80002091100330911103275F3F4F3C832B833B
:101B90008D831092E900109211031092100310939C
:101BA0000F0300930E0349E050E0BE016F5F7F4FCB
:101BB00080E00E94CB020E94230379CF10930F0391
:101BC00000930E030E940F03DC0112960D911C91ED
:101BD0000115110509F451C1D801ED91FC91048062
:101BE000F581E02DBE016B5E7F4FC801099500971E
:101BF00009F03EC1F80100851185EACFF3E0FF123C
:101C00000EC08F89882309F440C0823061F440E817
:101C100060E189E393E00E945010811148CF81E296
:101C20008093EB0047CF813029F440E86BE08DE2F0
:101C300093E0F1CF833099F70E940F03DC011296F5
:101C4000ED90FC908E010F5F1F4F6801E114F104CD
:101C500079F0D701ED91FC910680F781E02DB80174
:101C6000C7010995080F111DF701E084F184EECF3B
:101C7000D8011C92F60101900020E9F73197BF01CD
:101C80006C197D0940E0C601C6CF67E173E0FB0136
:101C9000449150E080E80E94CB0209CF973009F4CC
:101CA000BECF983021F481E08093F10000CF9930CD
:101CB00009F0FDCE837009F0B2CFE1E0F1E081E000
:101CC00031E096E32191222371F08093E900309373
:101CD000EB00DF0111972C912093EC009093ED0025
:101CE0008F5F873079F78EE78093EA001092EA00E1
:101CF0008F8980936703DBCE8B8D9C8D1092E900DA
:101D0000109211031092100390930F0380930E030F
:101D1000898D811192C08E899D89913A49F48132D1
:101D200009F07DCF47E050E065E171E080E0B3CF9E
:101D3000913209F074CF833269F48F89988DB0E0C5
:101D4000A0E08093070190930801A0930901B0934C
:101D50000A01ADCE803269F48091E80082FFFCCFA9
:101D600067E085E191E00E9402038BEF8093E80039
:101D70009ECE823209F09BCE8F8980931C01EEEFBC
:101D8000FFE7859194918B3F9C4D51F1E0E0F8E0A5
:101D90008091150190911601A0911701B091180141
:101DA000803B9440A105B105F1F480911C0180FDB8
:101DB0001AC0EE3F8AE0F80789F587E797E7918335
:101DC0008083809160008093120388E19BE00FB6CE
:101DD000F894A895809360000FBE9093600067CE42
:101DE000EEEFFAE0D5CF808191818737974709F0F0
:101DF0005ECEA8958091600088618093600080919C
:101E0000120380936000EE3F2AE0F20789F0809190
:101E1000FE0A9091FF0A9183808349CE808191814F
:101E20008737980751F29093FF0A8093FE0AC5CF37
:101E30001092FF0A1092FE0A3ACE0E940F03DC01B4
:101E400012960D911C910115110509F4E8CED801E7
:101E5000ED91FC910190F081E02DBE016B5E7F4F12
:101E6000C8010995811123CEF80100851185EBCFBA
:101E7000181619060CF41BCED2CEF1E0FF12BECE1E
:101E80006BE173E004CF1F920F920FB60F921124F3
:101E90002F933F938F939F93AF93BF938091FA02B9
:101EA0009091FB02A091FC02B091FD023091F902E9
:101EB00023E0230F2D3758F50196A11DB11D209366
:101EC000F9028093FA029093FB02A093FC02B09374
:101ED000FD028091FE029091FF02A0910003B0915B
:101EE00001030196A11DB11D8093FE029093FF0294
:101EF000A0930003B0930103BF91AF919F918F9185
:101F00003F912F910F900FBE0F901F90189526E8CC
:101F1000230F0296A11DB11DD2CF1F920F920FB6B3
:101F20000F9211242F933F934F935F936F937F935F
:101F30008F939F93AF93BF93EF93FF93E091130120
:101F4000F09114010995FF91EF91BF91AF919F918D
:101F50008F917F916F915F914F913F912F910F9052
:101F60000FBE0F901F9018951F920F920FB60F92F1
:101F700011242F933F934F935F936F937F938F938E
:101F80009F93AF93BF93EF93FF93E0911101F09173
:101F900012010995FF91EF91BF91AF919F918F91A0
:101FA0007F916F915F914F913F912F910F900FBE55
:101FB0000F901F9018951F920F920FB60F92112439
:101FC0002F933F934F935F936F937F938F939F9341
:101FD000AF93BF93EF93FF93E0910F01F091100146
:101FE0000995FF91EF91BF91AF919F918F917F9153
:101FF0006F915F914F913F912F910F900FBE0F9076
:102000001F9018951F920F920FB60F9211242F93C5
:102010003F934F935F936F937F938F939F93AF9370
:10202000BF93EF93FF93E0910D01F0910E0109959D
:10203000FF91EF91BF91AF919F918F917F916F91A0
:102040005F914F913F912F910F900FBE0F901F9076
:1020500018951F920F920FB60F9211242F933F9352
:102060004F935F936F937F938F939F93AF93BF93A0
:10207000EF93FF93E0910B01F0910C010995FF9113
:10208000EF91BF91AF919F918F917F916F915F91F0
:102090004F913F912F910F900FBE0F901F90189569
:1020A000EF92FF920F931F93CF93DF93F82E192F88
:1020B000E62E042F81E0860F880F0E949D0283E0A8
:1020C0000E949D02CF2DD12FEC0EFD2EF11CCE15BE
:1020D000DF05B9F007FF13C0FE0184910E949D0245
:1020E000182F80E00E949D02812321968111EFCF5D
:1020F000DF91CF911F910F91FF90EF90089588810C
:10210000EDCF81E0F5CF0F931F93CF93DF93CDB742
:10211000DEB7A1970FB6F894DEBF0FBECDBF8C011E
:10212000CB01BA01F801118210821382128215824A
:1021300014822AE0AE014F5F5F4F0E94911CBE01E6
:102140006F5F7F4FC8010E94A70AA1960FB6F8944F
:10215000DEBF0FBECDBFDF91CF911F910F910895CC
:1021600010926C0310926B0388EE93E0A0E0B0E055
:1021700080936D0390936E03A0936F03B0937003ED
:1021800081EE91E090936A03809369038FEF9FEF54
:1021900090937603809375031092C7038091BF03D9
:1021A000811113C01092BA031092B90388E593E02D
:1021B0009093BC038093BB0386E390E09093BE03AF
:1021C0008093BD0381E08093BF030E944207FC011E
:1021D000A385B485109709F050C189EB93E09487EB
:1021E0008387858596852091BD033091BE03820F3C
:1021F000931F968785871092D9031092D80383EF97
:1022000091E09093D7038093D6038091CE03811100
:1022100013C01092C9031092C8038EE893E0909304
:10222000CB038093CA038FE290E09093CD03809319
:10223000CC0381E08093CE030E944207FC01A3857A
:10224000B485109709F024C188EC93E094878387C4
:10225000858596852091CC033091CD03820F931F05
:1022600096878587109290041092970410929E048E
:1022700010929F041092A0041092A10481E0809318
:102280009D0480939A0410929B0492E090939C0486
:1022900080938F0486E090E090939404809393045D
:1022A0000E9424239093990480939804009709F442
:1022B000F9C026E0FC0111922A95E9F782E090E04E
:1022C000909392048093910487E090E09093960419
:1022D0008093950480919004882341F061E087E029
:1022E0000E94790460E087E00E944B04E1EFF3E094
:1022F000E491F0E0EE0FFF1FE452FC4F85919491C2
:102300009093A3048093A204E4ECF3E0E491E093BF
:10231000A40480E1EEE1F1E0A2EEB3E001900D92C1
:102320008A95E1F784E090E09093F3038093F203C1
:1023300086E090E09093F5038093F40388E090E0CA
:102340009093F7038093F6038AE090E09093F9036B
:102350008093F80382E080930204109204041092A8
:1023600003041092060410920504109208041092BF
:10237000070410920A041092090410920C0410929F
:102380000B0410920E0410920D0480E090E0A0E87F
:10239000BFE38093130490931404A0931504B093A7
:1023A00016048093170490931804A0931904B09313
:1023B0001A0410921C0410921B0410921E04109216
:1023C0001D041092200410921F04109222041092F7
:1023D000210483E090E0909324048093230485E01B
:1023E00080935A048AE080935B0488EE93E0909394
:1023F0005D0480935C0486E990E090935F04809391
:102400005E0481E090E0909365048093640490936F
:102410006704809366049093690480936804109223
:102420006B0410926A0410926D0410926C04109266
:102430006F0410926E046EEF71E083E794E00E94E7
:10244000B50B60ED72E089E794E00E94B50B66E0A1
:1024500072E08FE794E00E94B50B60E172E085E8DE
:1024600094E00E94B50B10928B0410928C04109291
:102470008D0410928E040895DC018D919C9111972A
:102480000097D1F789EB93E08D939C93AACEDC0162
:102490008D919C9111970097D1F788EC93E08D93E3
:1024A0009C93D6CE109294041092930410929204AE
:1024B0001092910409CFCF93DF93CDB7DEB76B971E
:1024C0000FB6F894DEBF0FBECDBF789484B582609E
:1024D00084BD84B5816084BD85B5826085BD85B5C8
:1024E000816085BD80916E00816080936E00109246
:1024F00081008091810082608093810080918100C1
:102500008160809381008091800081608093800051
:102510008091910082608093910080919100816010
:1025200080939100809190008160809390008091D1
:10253000C10084608093C1008091C100826080935B
:10254000C1008091C10081608093C1008091C3006F
:1025500081608093C3008091C00082608093C0003E
:102560008091C20081608093C20080917A00846073
:1025700080937A0080917A00826080937A008091C3
:102580007A00816080937A0080917A0080688093DD
:102590007A00109267031092150310921403809131
:1025A000D70081608093D70080EA8093D80089B5F6
:1025B000806189BD89B5826089BD09B400FEFDCF07
:1025C00061E070E080E090E00E94CF048091D8004C
:1025D0008F7C80618093D8008091E000807F809321
:1025E000E0008091E1008E7E8093E1008DE0809399
:1025F000E200559A209A8FEF9FEF90937603809395
:102600007503809195049091960497FD08C061E050
:102610000E94790460E0809195040E944B0481E05F
:1026200080939004409193045091940470E060E092
:1026300080919804909199040E940F251092720441
:1026400080E293E09093100480930F0480E991E07E
:10265000909312048093110489E193E09093F10325
:102660008093F0031FB7F89480911603811127C05F
:10267000EBEFF3E08491EEECF3E09491E82FF0E0DF
:10268000EE0FFF1FE65BFC4FA591B491EC91E9239F
:1026900021F461E081E10E944B0461E081E10E944C
:1026A00079048CB580618CBD8CB580648CBD61E093
:1026B0008FE00E94790461E080E10E9479048091BA
:1026C00016038F5F809316031FBF61E08091E303C1
:1026D0000E94790461E08091E3030E944B048091A1
:1026E000E4038F3FF1F060E00E9479048091E403FD
:1026F000882309F446C4813009F012C486E992E0C7
:102700009093120180931101809169008F7380680A
:1027100080936900EB9A82EE93E090931803809384
:1027200017038091020483708093E50381E0809316
:1027300070041092710463E08091F4039091F503AA
:102740000E948C0C8091F4039091F50368EE019641
:102750000E948C0C6EE08091F8039091F9030E9426
:102760008C0C8091F8039091F90360E101960E942E
:102770008C0C63E08091F2039091F3030E948C0C27
:102780008091F2039091F30368EE01960E948C0C05
:102790006EE08091F6039091F7030E948C0C80917B
:1027A000F6039091F70360E101960E948C0C009172
:1027B000F2031091F303C8010E94A00CC82EC801B7
:1027C00001960E94A00CD12CDC2CCC24C80ED11C6C
:1027D000D092FB03C092FA030091F4031091F50329
:1027E000C8010E94A00CA82EC80101960E94A00C4E
:1027F000B12CBA2CAA24A80EB11CB092FD03A09251
:10280000FC030091F6031091F703C8010E94A00C8D
:10281000E82EC80101960E94A00CF12CFE2CEE249B
:10282000E80EF11CF092FF03E092FE038090F803A3
:102830009090F903C4010E94A00C082FC4010196D6
:102840000E94A00C10E0102F0027080F111D1093FC
:10285000010400930004C7018C199D0960910F04C5
:10286000709110040E94F62290E080E00E94141FF4
:1028700060931304709314048093150490931604CA
:10288000C8018A199B0960911104709112040E9479
:10289000F62290E080E00E94141F6093170470936A
:1028A00018048093190490931A0480917204882369
:1028B00009F4ABC0B601CE010D960E94080B6091E1
:1028C000FE037091FF03CE0107960E94080B6CE196
:1028D00072E0CE0101960E94B50BBE01695F7F4F89
:1028E000CE0101960E94A20B63E272E00E948C0B63
:1028F000BE01635F7F4F0E94A20B0E945C0ACE0163
:1029000001960E944C0ACE0107960E944C0ACE0105
:102910000D960E944C0A6091FC037091FD03CE015C
:102920000D960E94080B6091000470910104CE0185
:1029300007960E94080B6CE272E0CE0101960E949D
:10294000B50BBE01695F7F4FCE0101960E94A20BBD
:1029500063E372E00E948C0BBE01635F7F4F0E94B5
:10296000A20B0E945C0ACE0101960E944C0ACE0185
:1029700007960E944C0ACE010D960E944C0A409187
:102980001304509114046091150470911604CE0143
:1029900007960E94D20A6CE372E0CE0101960E9473
:1029A000B50BBE01695F7F4FCE0101960E94A20B5D
:1029B0000E945C0ACE0101960E944C0ACE01079645
:1029C0000E944C0A40911704509118046091190418
:1029D00070911A04CE0107960E94D20A64E472E054
:1029E000CE0101960E94B50BBE01695F7F4FCE01FB
:1029F00001960E94A20B0E945C0ACE0101960E94E1
:102A00004C0ACE0107960E944C0A06ED11E09DED9E
:102A1000C92E91E0D92EF801F1908F0161E08F2D40
:102A20000E94790461E08F2D0E944B04C016D106EC
:102A300091F70CEC11E086EDC82E81E0D82EF8015C
:102A4000F1908F0160E08F2D0E94790461E08F2D5D
:102A50000E944B04C016D10691F780911D0181950B
:102A600080931D01B3E02B2E312C0AE010E0F2E040
:102A70004F2EA6E05A2E0E9415098091EA039091EC
:102A8000EB03803991400CF437C60E941509609021
:102A9000EA037090EB03E090E803F090E903C09044
:102AA000E603D090E703D0921C04C0921B04F0927E
:102AB0001E04E0921D0424E1621625E072060CF467
:102AC000F6C4D0922004C0921F04F0922204E09237
:102AD0002104609123047091240480914D04861791
:102AE00017060CF4DAC010924D0489E294E00E94BB
:102AF000E60B90930C0480930B0460912304709177
:102B000024048BE394E00E94E60B5C0190930E0496
:102B100080930D0460910B0470910C048091070464
:102B200090910804681B790B072E000C880B990BF9
:102B30000E94161F20911304309114044091150433
:102B4000509116040E945C2020E030E040E450E404
:102B50000E945C200E94CE2070932604609325047E
:102B60008091090490910A04B501681B790B072E26
:102B7000000C880B990B0E94161F209117043091AE
:102B800018044091190450911A040E945C2020E01E
:102B900030E040EC5FE30E945C200E94CE20709306
:102BA00028046093270480917204882351F00E94C6
:102BB000BA0560938B0470938C0480938D0490937A
:102BC0008E048091660490916704019731F06091C2
:102BD0002704809125040E94B40780917204882301
:102BE000F1F02091660430916704529EC001539E1B
:102BF000900D1124FC01ED58FB4F5F016BE872E072
:102C0000CE0101960E94B50BB501CE0101960E943E
:102C1000A20B0E945C0ACE0101960E944C0A809190
:102C20000B0490910C049093080480930704809106
:102C30000D0490910E0490930A048093090410925D
:102C40004D0410920C0410920B0410920E0410927A
:102C50000D0480916604909167048130910509F418
:102C60009EC108F483C28230910509F43CC30397E6
:102C700009F43EC320916604309167048091640496
:102C8000909165042817390741F030936904209327
:102C90006804909367048093660420914D04822F0A
:102CA00090E0F0901B0460911C04880F991F8E51D6
:102CB0009C4FFC01E95BFF4FF0826183875A9F4F75
:102CC00040911D0450911E04FC01518340832F5FED
:102CD00020934D0480917104882309F4E4C38F2D5F
:102CE000962F2091FE033091FF0328173907A8F58E
:102CF0008091F6039091F7030E948C0C8091F6036B
:102D00009091F7036F2D01960E948C0C60911B042B
:102D100070911C047093FF036093FE038091720412
:102D20008823D9F0CE0107960E94340B62EA72E044
:102D3000CE0101960E94B50BBE01695F7F4FCE01A7
:102D400001960E94A20B0E945C0ACE0101960E948D
:102D50004C0ACE0107960E944C0AF0901B04609129
:102D60001C048F2D962F2091FA033091FB038217BC
:102D70009307A8F58091F2039091F3030E948C0CC5
:102D80008091F2039091F3036F2D01960E948C0CB9
:102D900060911B0470911C047093FB036093FA0311
:102DA000809172048823D9F0CE0107960E94340BDB
:102DB0006AEA72E0CE0101960E94B50BBE01695F1E
:102DC0007F4FCE0101960E94A20B0E945C0ACE01A9
:102DD00001960E944C0ACE0107960E944C0AF09080
:102DE0001D0460911E048F2D962F209100043091B8
:102DF000010428173907A8F58091F8039091F90389
:102E00000E948C0C8091F8039091F9036F2D01962C
:102E10000E948C0C60911D0470911E04709301043B
:102E200060930004809172048823D9F0CE01079644
:102E30000E94340B62EB72E0CE0101960E94B50B4A
:102E4000BE01695F7F4FCE0101960E94A20B0E94D6
:102E50005C0ACE0101960E944C0ACE0107960E94A0
:102E60004C0AF0901D0460911E048F2D962F209126
:102E7000FC033091FD0382179307A8F58091F403BA
:102E80009091F5030E948C0C8091F4039091F503CE
:102E90006F2D01960E948C0C60911D0470911E0490
:102EA0007093FD036093FC03809172048823D9F032
:102EB000CE0107960E94340B6AEB72E0CE010196B8
:102EC0000E94B50BBE01695F7F4FCE0101960E9443
:102ED000A20B0E945C0ACE0101960E944C0ACE0110
:102EE00007960E944C0A89E693E00E94BC03892B56
:102EF00009F4D9C26DEF71E0CE0101960E94B50BC5
:102F00000E94C60597FDF9C18F83188641E050E005
:102F1000BE01695F7F4FCE0101960E94600BF0CF2A
:102F2000823071F486E992E090930E0180930D0156
:102F300080916900837F886080936900E99AEBCB78
:102F4000833071F486E992E090930C0180930B0139
:102F5000809169008C7F826080936900E89ADBCB66
:102F6000873009F0D8CB86E992E0909314018093E2
:102F7000130180916A008F7C806280936A00EE9AD0
:102F8000CACB86E992E09093100180930F01809163
:102F900069008F7C806280936900EA9ABCCB0E94B2
:102FA000BA05609352047093530480935404909331
:102FB000550410926104109260048091680490910D
:102FC0006904892B09F094C180916604909167048B
:102FD000019709F08DC180917204882309F475C0AE
:102FE00040914E0450914F046091500470915104EF
:102FF000CE0107960E9483106CE472E0CE01019628
:103000000E94B50BBE01695F7F4FCE0101960E9401
:10301000A20B0E94B105CE0101960E944C0ACE017E
:1030200007960E944C0A40915204509153046091BB
:10303000540470915504CE0107960E9483106AE5EE
:1030400072E0CE0101960E94B50BBE01695F7F4F11
:10305000CE0101960E94A20B0E94B105CE010196FD
:103060000E944C0ACE0107960E944C0A40915204DD
:1030700050915304609154047091550480914E0412
:1030800090914F04A0915004B0915104481B590BEA
:103090006A0B7B0BCE0107960E94831062E772E0F9
:1030A000CE0101960E94B50BBE01695F7F4FCE0134
:1030B00001960E94A20B0E945C0ACE0101960E941A
:1030C0004C0ACE0107960E944C0A4091520450913E
:1030D0005304609154047091550480914E04909172
:1030E0004F04A0915004B0915104481B590B6A0B36
:1030F0007B0B80915E0490915F04B0E0A0E08417A8
:103100009507A607B70708F4B5CD80917204882308
:10311000D9F0CE0107960E94831067E672E0CE01D7
:1031200001960E94B50BBE01695F7F4FCE010196EB
:103130000E94A20B0E945C0ACE0101960E944C0ADA
:10314000CE0107960E944C0A3092650420926404D6
:103150009091C703892F8160981709F48BCD8093D4
:10316000C70360E080E00E94B40784CD109265043C
:103170001092640480915A0490E0209125043091CB
:103180002604821793070CF49FC0209127043091E6
:103190002804821793070CF497C0809160049091E3
:1031A00061049C012F5F3F4F3093610420936004C2
:1031B00020915B042817190611F008F078C00E94CE
:1031C000BA058090520490905304A0905404B0909B
:1031D0005504AB01BC01481959096A097B09809162
:1031E0005C0490915D04B0E0A0E0481759076A07BD
:1031F0007B0708F45CC08090680490906904F3E059
:103200008F16910409F453C080917204882359F1F8
:103210002091660430916704529EC001539E900D28
:1032200011249C012D583B4F59016DE772E0CE01EE
:1032300001960E94B50B589CB001599C700D112449
:103240006D587B4FCE0101960E94A20B6AE872E096
:103250000E948C0BB5010E94A20B0E945C0ACE0159
:1032600001960E944C0A88E992E00E94680A409206
:10327000C70360E080E00E94B4071092C70360E0DB
:1032800080E00E94B40710926104109260040E94D2
:10329000BA0560935204709353048093540490933E
:1032A000550482E090E09093650480936404D0928A
:1032B0006B04C0926A04F0926D04E0926C04709208
:1032C0006F0460926E04D6CC109261041092600478
:1032D0000E94BA056093520470935304809354047F
:1032E00090935504E4CF9093650480936404C2CC1A
:1032F0001092650410926404BDCC62EC72E0CE01C1
:1033000001960E94A70A89819A81F12CE12C892BD0
:1033100021F078E4E72E76E0F72ECE0101960E94A8
:103320004C0AEF2809F4BFC0C090F203D090F30319
:10333000C6010E94A00CE82EC60101960E94A00CB6
:10334000F12CFE2CEE24E80EF11CF092FB03E0922F
:10335000FA03C090F403D090F503C6010E94A00CBC
:10336000B82EC60101960E94A00C2B2D30E0322F02
:103370002227820F932F911D9093FD038093FC03CE
:10338000C090F603D090F703C6010E94A00CB82E9F
:10339000C60101960E94A00C2B2D30E0322F22276F
:1033A000820F932F911D9093FF038093FE03C09093
:1033B000F803D090F903C6010E94A00CB82EC601F4
:1033C00001960E94A00C2B2D30E0322F2227820F75
:1033D000932F911D9093010480930004B701CE01B7
:1033E0000D960E94080B6091FE037091FF03CE01C1
:1033F00007960E94080B6CE172E0CE0101960E94D4
:10340000B50BBE01695F7F4FCE0101960E94A20BF2
:1034100063E272E00E948C0BBE01635F7F4F0E94EB
:10342000A20B0E945C0ACE0101960E944C0ACE01BA
:1034300007960E944C0ACE010D960E944C0A60919C
:10344000FC037091FD03CE010D960E94080B609164
:10345000000470910104CE0107960E94080B6CE2F3
:1034600072E0CE0101960E94B50BBE01695F7F4FED
:10347000CE0101960E94A20B63E372E00E948C0BC6
:10348000BE01635F7F4F0E94A20B0E945C0ACE01C7
:1034900001960E944C0ACE0107960E944C0ACE016A
:1034A0000D960E944C0A109263041092620401501F
:1034B000110909F0E0CAE0906303F0906403C701CA
:1034C0006AE070E00E940A238C01D62E05971CF05A
:1034D0008DE0D82ED61AD0926203B02E0530110599
:1034E0001CF08BEFB82EB00EB09261036A527E4F83
:1034F000FB01C08060E08C2D0E944B04F801E45376
:10350000FE4F1081812F0E942204892B09F07DC17A
:103510000091650361E08C2D0E944B04812F0E9475
:103520002204892B09F471C1D1103BC1F2E0BF1212
:1035300038C180913703811110C080911A0311E0C6
:10354000812780931A0301270093650361EC86EDC0
:1035500093E00E943E0810933703F5E4EF16F10460
:103560000CF058C12FEFE21AF20AF0926403E092D5
:1035700063038091910490919204892B59F080917A
:103580006503482F440F440F480F60E090E080E04F
:103590000E94310260E081E10E944B0485EA0E94B2
:1035A0000E0985EA0E940E09182F61E081E10E9450
:1035B0004B048091910490919204029790F0812F96
:1035C00090E0412F883191050CF448E148516AE1BF
:1035D00070E0681B790B77FD60E081E090E00E946D
:1035E00031028091980490919904892B09F47CC050
:1035F0000E94AA0400919E0410919F042091A004AF
:103600003091A104601771078207930740F460931B
:103610009E0470939F048093A0049093A104009152
:103620009E0410919F042091A0043091A104601B7E
:10363000710B820B930B6C32714081059105C0F2C6
:10364000F89480919304909194049C8B8B8BE091DF
:103650009804F0919904DF01119680818B8F9091ED
:103660008F04E091A204F091A3048091A404992313
:1036700009F4D5C09081982B9A8F908180958923E9
:10368000898F898D8E8B88E08D8B5A8D698D4B8DBE
:103690003D892E898B899C89508347FD252F3A953A
:1036A0002083262F39F0441F00C0000060830000F3
:1036B00000C0F2CF38E04D9160830000019761F7C0
:1036C000F093A304E093A2044B8F3D8B2E8B9C8B35
:1036D0008B8B78940E94AA0460939E0470939F043D
:1036E0008093A0049093A10480E090E0892B09F4DA
:1036F000BCC90E940000B9C9809162049091630422
:103700009C012F5F3F4F3093630420936204883EF7
:10371000934008F4CCCE8091C70380FF0AC0982F55
:103720009E7F80FF06C09093C70360E080E00E9408
:10373000B4078091C70381FF0AC0982F9D7F81FF46
:1037400006C09093C70360E080E00E94B4078091B8
:103750006604909167048130910509F4A4CE90939A
:1037600069048093680421E030E03093670420937B
:1037700066040E94BA0560934E0470934F048093D0
:10378000500490935104109261041092600480914F
:103790007204882309F487CE86EC92E00E94680ABE
:1037A00082CE0D2D10E0CB2CD12C2EE0B29EB0019C
:1037B0001124FB01E55EFC4FE00FF11F8081833097
:1037C00018F48F5F8083C9CE833009F0C6CE809114
:1037D0001A038823B9F0605C7E4FFB01E00FF11FF4
:1037E000608186ED93E00E943E082EE02C9DC00192
:1037F0002D9D900D1124855E9C4F080F191F84E0AC
:10380000F801E0CF6A577E4FE8CF6B2D8D2D0E94D7
:10381000B908A3CE1092640310926303AACE9081DC
:10382000982B9A8F908180958923898F898D888F95
:1038300088E08F8B5A8D698D4B8D3F89288D8B89C0
:103840009C89508347FD252F00C000C0208300C005
:1038500000C000C000C000C060830000262F3A9561
:1038600041F0441F000000C000C000C000C000C004
:10387000E8CF38E04D9100C0608300C0019709F7A0
:10388000F093A304E093A2044B8F3F8B288F1FCFAC
:1038900085E894E00E944C0A8FE794E00E944C0A6D
:1038A00089E794E00E944C0A83E794E00E944C0A66
:1038B00080919804909199040E94C023809195046E
:1038C0009091960497FD03C060E00C9479040895EC
:1038D000EF920F931F93CF93DF93E80134E047FDFE
:1038E00034E1042E000C550B57FF03C05195419550
:1038F0005109E32E022F242FAE010E94CD1CCE01D0
:10390000DF91CF911F910F91EF900895BB274A301F
:1039100031F4992322F4BDE2909581959F4F0C9448
:10392000B41CBB27FA01A62F62177105810591050A
:10393000330B30FB66F0AA27660F771F881F991F8D
:10394000AA1FA21710F0A21B63953850A9F7A05D1B
:10395000AA3308F0A95DA19336F7B111B193108293
:10396000CA010C94041FBB27FB015527AA27880F07
:10397000991FAA1FA41710F0A41B83955051B9F7E3
:10398000A05DAA3308F0A95DA193009779F7B11162
:10399000B1931192CB010C94041FA9E0B0E0E3EDC8
:1039A000FCE10C942B206A01F22EB02E102FFBE3C9
:1039B000AF2EA01608F41BE31F5F012F27E0AE0116
:1039C0004F5F5F4F0E942C1EBC018981982F997018
:1039D000913009F43FC09BE2E1FC04C09E2D917040
:1039E000E0FC3AC05E2D5071E82FE87083FF46C0BE
:1039F00084E0911101C083E0EF2DE81B8F1508F0E2
:103A0000E0E0D6018E2F20E2552351F1992329F0D1
:103A1000D6019C93C60101966C0196012D5F3F4F24
:103A2000E2FE24C08EE4D6018C9391E411969C931F
:103A3000119712968C93D9018E2F90E281111BC0A1
:103A4000E20FF32FF11D10828EEF9FEF2996ECE02D
:103A50000C9447209DE2C6CF90E2C4CF2D938150B5
:103A60008111FCCFCE0ED11CE0E0D0CF8EE6D60186
:103A70008C9391E6DBCF9D938150E0CF482F44702B
:103A800082FF3DC084E0911101C083E08F1510F4E6
:103A9000EF2DE81BD6018E2F20E2552309F1992343
:103AA00029F0D6019C93C60101966C0196012D5F09
:103AB0003F4FE2FE1BC089E4D6018C938EE4119641
:103AC0008C93119786E412968C93D9018E2F90E2F5
:103AD000882309F4B5CF9D938150FACF2D9381505F
:103AE0008111FCCFCE0ED11CE0E0D9CF89E6D60102
:103AF0008C938EE611968C93119786E6E4CF9B010A
:103B000077FF02C030E020E0A1E0B0E0911102C0F8
:103B1000B0E0A0E0F9013196AE0FBF1F8B2C912CC5
:103B2000BB2009F461C05401EFEFAE1ABE0AAA0D22
:103B3000BB1DFA161B0619F014F04F2D4A1B51112C
:103B400088C0E3FC59C07601A42FB0E2A1114FC098
:103B5000C40ED11C992309F45BC040E0D601119634
:103B6000F60190836D01552309F448C0012F060F1B
:103B70009A81582F507184FF03C0913309F401508A
:103B800010160CF047C0093008F008E0EEE2FE2EF7
:103B90005B01A01AB10885019194819491082F3F8F
:103BA000320729F4D601FC92F60131966F016217B3
:103BB000730794F1021713077CF5DB01A21BB30B0B
:103BC000AA24A394B12CAC0EBD1EAA0DBB1D119648
:103BD0008C9121503109D601119628153905F4F040
:103BE000F60180836D01DBCFB12CA12CA0CFF701B2
:103BF000B1937F01A150AACF9111B0CFD601942FDC
:103C000050E302C05D9391509111FCCFC40ED11CC2
:103C100040E0ACCF01E0BACF80E3DBCF621773079F
:103C200031F4963388F4953311F4552369F0F60195
:103C30008083FD01842F90E2811108C0A40FB11D83
:103C40001C9290E080E002CF81E3F1CF919381500C
:103C5000F3CF911183CF8ACF283008F027E03327A4
:103C6000DA01990F311D87FD91600096610571059C
:103C700039F432602E5F3D9330E32A95E1F70895E1
:103C80009F3F30F080387105610509F03C5F3C5F73
:103C90003D93913008F08068911DDF93CF931F937F
:103CA0000F93FF92EF92192F987F9695E92F969593
:103CB0009695E90FFF27E857FE4F99273327EE2403
:103CC000FF24A701E70105900894079428F4360F14
:103CD000E71EF81E491F511D660F771F881F991F89
:103CE0000694A1F70590079428F4E70EF81E491FE3
:103CF000561FC11D770F881F991F661F0694A1F7D5
:103D00000590079428F4F80E491F561FC71FD11DB0
:103D1000880F991F661F771F0694A1F705900794D7
:103D200020F4490F561FC71FD81F990F661F771F12
:103D3000881F0694A9F784911095177041F0D695C5
:103D4000C79557954795F794E7941A95C1F7EEE212
:103D5000F1E06894159015913591659195910590D4
:103D60007FE27395E118F10A430B560BC90BD0099A
:103D7000C0F7E10CF11E431F561FC91FD01D7EF472
:103D8000703311F48A95E6CFE894015030F0080FB3
:103D90000AF40027021708F4202F2395022F7A3304
:103DA00028F079E37D932A95E9F710C07D932A9551
:103DB00089F6069497956795379517951794E118A6
:103DC000F10A430B560BC90BD00998F023957E914D
:103DD00073957A3308F070E37C932013B8F77E91E3
:103DE00070617D9330F0839571E37D9370E32A9544
:103DF000E1F71124EF90FF900F911F91CF91DF9188
:103E0000992787FD90950895DC01FC01672F71913A
:103E10007723E1F7329704C07C916D9370836291B0
:103E2000AE17BF07C8F30895E89409C097FB3EF4A6
:103E300090958095709561957F4F8F4F9F4F9923F7
:103E4000A9F0F92F96E9BB279395F6958795779575
:103E50006795B795F111F8CFFAF4BB0F11F460FF35
:103E60001BC06F5F7F4F8F4F9F4F16C0882311F08D
:103E700096E911C0772321F09EE8872F762F05C0A1
:103E8000662371F096E8862F70E060E02AF09A953C
:103E9000660F771F881FDAF7880F9695879597F931
:103EA00008950E94641F0C94D51F0E94C71F38F00C
:103EB0000E94CE1F20F0952311F00C94BE1F0C948D
:103EC000C41F11240C9409200E94E61F70F3959FD3
:103ED000C1F3950F50E0551F629FF001729FBB2701
:103EE000F00DB11D639FAA27F00DB11DAA1F649F9D
:103EF0006627B00DA11D661F829F2227B00DA11D50
:103F0000621F739FB00DA11D621F839FA00D611DD5
:103F1000221F749F3327A00D611D231F849F600DF6
:103F2000211D822F762F6A2F11249F5750409AF01F
:103F3000F1F088234AF0EE0FFF1FBB1F661F771FAB
:103F4000881F91505040A9F79E3F510580F00C9476
:103F5000BE1F0C9409205F3FE4F3983ED4F386958E
:103F600077956795B795F795E7959F5FC1F7FE2B16
:103F7000880F911D9695879597F9089597F99F67F2
:103F800080E870E060E008959FEF80EC08950024E1
:103F90000A941616170618060906089500240A94AE
:103FA00012161306140605060895092E0394000C34
:103FB00011F4882352F0BB0F40F4BF2B11F460FFC3
:103FC00004C06F5F7F4F8F4F9F4F089557FD9058EC
:103FD000440F551F59F05F3F71F04795880F97FBCD
:103FE000991F61F09F3F79F0879508951216130687
:103FF0001406551FF2CF4695F1DF08C016161706B6
:104000001806991FF1CF86957105610508940895EA
:10401000E894BB2766277727CB0197F90895F9998C
:10402000FECF92BD81BDF89A992780B50895262FBD
:10403000F999FECF1FBA92BD81BD20BD0FB6F8948D
:10404000FA9AF99A0FBE019608952F923F924F92D5
:104050005F926F927F928F929F92AF92BF92CF9218
:10406000DF92EF92FF920F931F93CF93DF93CDB721
:10407000DEB7CA1BDB0B0FB6F894DEBF0FBECDBF99
:1040800009942A88398848885F846E847D848C846A
:104090009B84AA84B984C884DF80EE80FD800C8173
:1040A0001B81AA81B981CE0FD11D0FB6F894DEBF56
:1040B0000FBECDBFED0108950E9470200C94D51F56
:1040C0000E94CE1F58F00E94C71F40F029F45F3FA6
:1040D00029F00C94BE1F51110C9409200C94C41F9C
:1040E0000E94E61F68F39923B1F3552391F3951BC2
:1040F000550BBB27AA2762177307840738F09F5F09
:104100005F4F220F331F441FAA1FA9F335D00E2E75
:104110003AF0E0E832D091505040E695001CCAF7E2
:104120002BD0FE2F29D0660F771F881FBB1F2617A5
:1041300037074807AB07B0E809F0BB0B802DBF017C
:10414000FF2793585F4F3AF09E3F510578F00C944B
:10415000BE1F0C9409205F3FE4F3983ED4F386958C
:1041600077956795B795F7959F5FC9F7880F911D6C
:104170009695879597F90895E1E0660F771F881F58
:10418000BB1F621773078407BA0720F0621B730B0B
:10419000840BBA0BEE1F88F7E09508950E94D52096
:1041A0006894B1110C94092008950E94EE1F88F0C4
:1041B0009F5798F0B92F9927B751B0F0E1F0660FEB
:1041C000771F881F991F1AF0BA95C9F714C0B1302C
:1041D00091F00E940820B1E008950C940820672F08
:1041E000782F8827B85F39F0B93FCCF3869577955B
:1041F0006795B395D9F73EF4909580957095619544
:104200007F4F8F4F9F4F0895FA01EE0FFF1F30969B
:1042100021053105A1F16115710561F48038BFE315
:104220009B0749F168949038810561F08038BFEFB1
:104230009B0741F099234AF5FF3FE1053105210530
:1042400019F1E8940894E795D901AA2329F4AB2F32
:10425000BE2FF85FD0F310C0FF5F70F4A695E0F7B3
:10426000F73950F019F0FF3A38F49F779F930DD04B
:104270000F9007FC9058089546F00C94C41F60E01E
:1042800070E080E89FE308954FE79F775F934F9337
:104290003F932F930E94FF212F913F914F915F9168
:1042A0000E94511F0C945C2129F416F00C94BE1F3F
:1042B0000C9408200C94C41F0E94EE1FA8F396389B
:1042C000A0F707F80F92E8942BE33AEA48EB5FE790
:1042D0000E94671F0F920F920F924DB75EB70F9219
:1042E0000E944722ECEAF0E00E948E214F915F91FC
:1042F000EF91FF91E595EE1FFF1F49F0FE57E06833
:104300004427EE0F441FFA95E1F74195550B0E94A3
:10431000C1210F9007FE0C94B5210895DF93CF9330
:104320001F930F93FF92EF92DF927B018C016894B1
:1043300006C0DA2EEF010E94641FFE01E894A591E9
:104340002591359145915591A6F3EF010E94932255
:10435000FE019701A801DA9469F7DF90EF90FF90D2
:104360000F911F91CF91DF9108959B01AC0160E007
:1043700070E080E89FE30C945C200C94BE1F0C94CA
:10438000E8220E94EE1FD8F39923C9F3940F511D20
:10439000A3F39150504094F059F0882332F0660F07
:1043A000771F881F91505040C1F79E3F51052CF751
:1043B000880F911D9695879597F908955F3FACF00A
:1043C000983E9CF0BB27869577956795B79508F43E
:1043D000B1609395C1F7BB0F58F711F460FFE8CFB8
:1043E0006F5F7F4F8F4F9F4FE3CF0C94092016F0E4
:1043F0000C94E8220C94C41F68940C94BE1F0E9475
:10440000EE1FA8F39923C1F3AEF3DF93CF931F936D
:104410000F93FF92C92FDD2788232AF02197660F7B
:10442000771F881FDAF720E030E040E85FEB9FE37A
:10443000883920F0803E38F021968F770E947C22C8
:10444000E4EDF0E004C00E947C22E1E0F1E00E9493
:104450008E218B01BE01EC01FB2E6F577109759502
:10446000771F880B990B0E94161F28E132E741E362
:104470005FE30E94641FAF2D9801AE01FF900F9182
:104480001F91CF91DF910E9493220C94D51FFA01C6
:10449000DC01AA0FBB1F9B01AC01BF5728F42227E8
:1044A00033274427507820C0B75190F4AB2F002415
:1044B000469537952795011CA395D2F3002071F0FE
:1044C000220F331F441FB395DAF30ED00C947B22D6
:1044D00061307105A0E88A07B94630F49B01AC0150
:1044E0006627772788279078309621F020833183BC
:1044F0004283538308955058BB27AA270E949322D2
:104500000C94D51F0E94C71F38F00E94CE1F20F0C8
:1045100039F49F3F19F426F40C94C41F0EF4E0956F
:10452000E7FB0C94BE1FE92F0E94E61F58F3BA1751
:10453000620773078407950720F079F4A6F50C94B9
:1045400008200EF4E0950B2EBA2FA02D0B01B90117
:1045500090010C01CA01A0011124FF27591B99F0F9
:10456000593F50F4503E68F11A16F040A22F232F05
:10457000342F4427585FF3CF469537952795A79555
:10458000F0405395C9F77EF41F16BA0B620B730BFC
:10459000840BBAF09150A1F0FF0FBB1F661F771F6D
:1045A000881FC2F70EC0BA0F621F731F841F48F422
:1045B000879577956795B795F7959E3F08F0B0CFAB
:1045C0009395880F08F09927EE0F97958795089592
:1045D0009F3F31F0915020F4879577956795B79577
:1045E000880F911D9695879597F90895AA1BBB1B77
:1045F00051E107C0AA1FBB1FA617B70710F0A61BE3
:10460000B70B881F991F5A95A9F780959095BC0103
:10461000CD01089597FB072E16F4009407D077FD7F
:1046200009D00E94F62207FC05D03EF490958195B2
:104630009F4F0895709561957F4F0895EE0FFF1F6E
:104640000590F491E02D09940F931F93CF93DF937E
:104650008230910510F482E090E0E091A704F0919F
:10466000A80430E020E0B0E0A0E0309799F42115F4
:10467000310509F44AC0281B390B24303105D8F51F
:104680008A819B816115710589F1FB019383828386
:10469000FE0111C0408151810281138148175907E1
:1046A000E0F04817590799F4109761F012960C93AF
:1046B000129713961C933296CF01DF91CF911F91E1
:1046C0000F9108950093A7041093A804F4CF211527
:1046D000310551F04217530738F0A901DB019A0167
:1046E000BD01DF01F801C1CFEF01F9CF9093A8041C
:1046F0008093A704CDCFFE01E20FF31F8193919326
:104700002250310939832883D7CF2091A5043091D5
:10471000A604232B41F420913001309131013093D4
:10472000A6042093A50420912E0130912F0121157C
:10473000310541F42DB73EB740913201509133011C
:10474000241B350BE091A504F091A604E217F307B2
:10475000A0F42E1B3F0B2817390778F0AC014E5FF1
:104760005F4F2417350748F04E0F5F1F5093A60484
:104770004093A504819391939FCFF0E0E0E09CCF1C
:10478000CF93DF930097E9F0FC01329713821282F6
:10479000A091A704B091A804ED0130E020E01097AB
:1047A000A1F420813181820F931F2091A5043091C3
:1047B000A6042817390709F061C0F093A604E09316
:1047C000A504DF91CF910895EA01CE17DF07E8F540
:1047D0004A815B819E0141155105B1F7E901FB83D7
:1047E000EA8349915991C40FD51FEC17FD0761F475
:1047F000808191810296840F951FE90199838883B6
:10480000828193819B838A83F0E0E0E012968D9110
:104810009C9113970097B9F52D913C911197CD017B
:104820000296820F931F2091A5043091A6042817A9
:10483000390739F6309751F51092A8041092A70461
:10484000B093A604A093A504BCCFD383C2834081B8
:104850005181840F951FC817D90761F44E5F5F4FD0
:1048600088819981480F591F518340838A819B8198
:10487000938382832115310509F0B0CFF093A8040A
:10488000E093A7049ECFFD01DC01C0CF138212820A
:10489000D7CFB0E0A0E0EFE4F4E20C9427208C0145
:1048A000009751F4CB010E9424238C01C801CDB79D
:1048B000DEB7E0E10C944320FC01E60FF71F9C01FA
:1048C00022503109E217F30708F49DC0D901CD91B8
:1048D000DC911197C617D70798F0C530D10530F392
:1048E000CE0104978617970708F3C61BD70B2297AC
:1048F000C193D1936D937C93CF010E94C023D6CFF7
:104900005B01AC1ABD0A4C018C0E9D1EA091A70440
:10491000B091A804512C412CF12CE12C109731F5C9
:104920008091A5049091A6048815990509F05CC0B2
:104930004616570608F058C080912E0190912F011D
:10494000009741F48DB79EB74091320150913301E9
:10495000841B950BE817F90708F055C0F093A604DF
:10496000E093A504F90171836083A0CF8D919C91A0
:10497000119712966C90129713967C901397A81526
:10498000B90559F56C0142E0C40ED11CCA14DB0410
:1049900020F1AC014A195B09DA011296159780F0F3
:1049A0006282738251834083D9016D937C93E114B9
:1049B000F10471F0D7011396FC93EE93129776CF22
:1049C00022968C0F9D1FF90191838083F301EFCF15
:1049D000F093A804E093A70469CF4816590608F499
:1049E0002C017D01D3019ACFCB010E9424237C01AD
:1049F000009749F0AE01B8010E940625C8010E9447
:104A0000C023870153CF10E000E050CFFB01DC0151
:104A100002C001900D9241505040D8F70895DC013A
:104A200001C06D9341505040E0F70895FB01DC0157
:104A300001900D920020E1F7089512E0C6E0D2E067
:104A400004C0FE010E941E232196C730D107C9F77A
:044A5000F894FFCF08
:104A540000C18081000000FFFFFFFFF805F805F8A2
:104A640005F805F80500E1000000000000FE011152
:104A7400FF010000000000000000008000000000B2
:104A8400A9048000000000004906F706BC06A10640
:104A94007E21402324255E262A28295F2BB2B37168
:104AA400776572747975696F707B7DD4C161736445
:104AB4006667686A6B6C3A227CB0B17A7863766216
:104AC4006E6D3C3E3FDA85D2C2C3C4C5C620208683
:104AD4008487D8D9D7D5603132333435363738392D
:104AE400302D3DB2B371776572747975696F705BFF
:104AF4005DD4C16173646667686A6B6C3B275CB0A4
:104B0400B17A786376626E6D2C2E2FDA85D2C2C3A9
:104B1400C4C5C62020868487D8D9D7D50D121314CE
:104B240015010002030B0A0908060C041E0000000C
:104B34000054039B0575036A03BC037A03980300BE
:104B44000000009A08D107B00848060D0A00746FE7
:104B54007563686564006C6F6E675072657373008B
:104B6400646F75626C65436C69636B006D6178207A
:104B7400783A000D0A6D696E20783A006D617820EC
:104B8400793A000D0A6D696E20793A0078526174A1
:104B9400696F3A0079526174696F3A006C61737499
:104BA4002072656C656173653A002C6C61737420C6
:104BB400746F7563683A00646F75626C65636C69E1
:104BC400636B2C696E74657276616C3A006C617308
:104BD40074207374617465303A002C6C61737420B2
:104BE4007374617465313A006C6F6E6770726573CB
:104BF40073006D61782078203A006D696E2078200A
:104C04003A006D61782079203A006D696E20792030
:104C14003A006D6178002D2D2D2D2D2D2D2D2D2D4E
:0A4C240072656C6561736564000041
:00000001FF
